{"abi":[{"inputs":[{"internalType":"bool","name":"success","type":"bool"},{"internalType":"bytes","name":"revertData","type":"bytes"},{"internalType":"bytes32","name":"checksHash","type":"bytes32"}],"name":"RevertDelegation","type":"error"},{"stateMutability":"payable","type":"fallback"},{"inputs":[{"internalType":"address","name":"implementation","type":"address"},{"internalType":"bytes","name":"data","type":"bytes"}],"name":"addImplementation","outputs":[],"stateMutability":"nonpayable","type":"function"},{"inputs":[],"name":"allImplementations","outputs":[{"internalType":"address[]","name":"","type":"address[]"}],"stateMutability":"view","type":"function"},{"inputs":[{"internalType":"address","name":"_implementation","type":"address"},{"internalType":"bytes","name":"data","type":"bytes"},{"components":[{"internalType":"address","name":"targetContract","type":"address"},{"internalType":"bytes","name":"data","type":"bytes"}],"internalType":"struct Proxy.CheckCall[]","name":"checks","type":"tuple[]"},{"internalType":"bool","name":"revertExecution","type":"bool"}],"name":"delegateAndCheck","outputs":[{"internalType":"bool","name":"success","type":"bool"},{"internalType":"bytes","name":"returnData","type":"bytes"},{"internalType":"bytes32","name":"checksHash","type":"bytes32"}],"stateMutability":"payable","type":"function"},{"inputs":[{"internalType":"bytes4","name":"","type":"bytes4"},{"internalType":"uint256","name":"","type":"uint256"}],"name":"functionsChecks","outputs":[{"internalType":"address","name":"targetContract","type":"address"},{"internalType":"bytes","name":"data","type":"bytes"}],"stateMutability":"view","type":"function"},{"inputs":[{"internalType":"bytes4","name":"signature","type":"bytes4"}],"name":"getChecks","outputs":[{"components":[{"internalType":"address","name":"targetContract","type":"address"},{"internalType":"bytes","name":"data","type":"bytes"}],"internalType":"struct Proxy.CheckCall[]","name":"","type":"tuple[]"}],"stateMutability":"view","type":"function"},{"inputs":[{"internalType":"address","name":"_implementation","type":"address"},{"internalType":"bytes","name":"data","type":"bytes"},{"components":[{"internalType":"address","name":"targetContract","type":"address"},{"internalType":"bytes","name":"data","type":"bytes"}],"internalType":"struct Proxy.CheckCall[]","name":"checks","type":"tuple[]"}],"name":"getErrorMessage","outputs":[{"internalType":"bool","name":"","type":"bool"},{"internalType":"bytes","name":"","type":"bytes"},{"internalType":"bytes32","name":"","type":"bytes32"}],"stateMutability":"nonpayable","type":"function"},{"inputs":[{"internalType":"uint256","name":"","type":"uint256"}],"name":"implementations","outputs":[{"internalType":"address","name":"","type":"address"}],"stateMutability":"view","type":"function"},{"inputs":[{"internalType":"bytes4","name":"functionSignature","type":"bytes4"},{"internalType":"address","name":"targetContract","type":"address"},{"internalType":"bytes","name":"data","type":"bytes"}],"name":"registerCheck","outputs":[],"stateMutability":"nonpayable","type":"function"},{"stateMutability":"payable","type":"receive"}],"bytecode":"608060405234801561001057600080fd5b50611d6c806100206000396000f3fe60806040526004361061007f5760003560e01c8063845affc81161004e578063845affc8146101235780639e0f59511461015b578063d974e41d14610188578063e1ec966e146101a85761008e565b806323fa6a11146100965780633522afe6146100c15780633bd47ba4146100e3578063629ba890146101035761008e565b3661008e5761008c6101d6565b005b61008c6101d6565b6100a96100a43660046116b5565b610683565b6040516100b8939291906117a0565b60405180910390f35b3480156100cd57600080fd5b506100d6610864565b6040516100b891906117cb565b3480156100ef57600080fd5b506100a96100fe366004611818565b6108c6565b34801561010f57600080fd5b5061008c61011e3660046118a4565b6109c9565b34801561012f57600080fd5b5061014361013e366004611905565b610a23565b6040516001600160a01b0390911681526020016100b8565b34801561016757600080fd5b5061017b61017636600461191e565b610a4d565b6040516100b891906119b2565b34801561019457600080fd5b5061008c6101a33660046119c5565b610b6a565b3480156101b457600080fd5b506101c86101c3366004611a13565b610c71565b6040516100b8929190611a3d565b600080356001600160e01b031916815260656020908152604080832080548251818502810185019093528083526060938593849390929091849084015b828210156102ec576000848152602090819020604080518082019091526002850290910180546001600160a01b03168252600181018054929391929184019161025b90611a69565b80601f016020809104026020016040519081016040528092919081815260200182805461028790611a69565b80156102d45780601f106102a9576101008083540402835291602001916102d4565b820191906000526020600020905b8154815290600101906020018083116102b757829003601f168201915b50505050508152505081526020019060010190610213565b505060645492935060009150505b8181101561064e5760006064828154811061031757610317611aa4565b60009182526020822001546001600160a01b03169150610338600185611ad0565b8314159050600080306001600160a01b0316846000368a87604051602401610364959493929190611ae7565b60408051601f198184030181529181526020820180516001600160e01b03166323fa6a1160e01b179052516103999190611b4a565b600060405180830381855af49150503d80600081146103d4576040519150601f19603f3d011682016040523d82523d6000602084013e6103d9565b606091505b5091509150811580156103ea575082155b156104525760405162461bcd60e51b815260206004820152602d60248201527f64656c656761746543616c6c2073686f756c642068617665207375636365656460448201526c195908189d5d0819985a5b1959609a1b60648201526084015b60405180910390fd5b81801561045c5750825b156104bf5760405162461bcd60e51b815260206004820152602d60248201527f64656c656761746543616c6c2073686f756c642068617665206661696c65642060448201526c189d5d081cdd58d8d959591959609a1b6064820152608401610449565b60008060006104ce8585610d41565b92509250925087600014156104ee57919b509950975061063c9350505050565b8215158d15151461055a5760405162461bcd60e51b815260206004820152603060248201527f616c6c20696d706c656d656e746174696f6e73206d7573742072657475726e2060448201526f7468652073616d65207375636365737360801b6064820152608401610449565b6105648c83610d7d565b6105cd5760405162461bcd60e51b815260206004820152603460248201527f616c6c20696d706c656d656e746174696f6e73206d7573742072657475726e206044820152737468652073616d652072657475726e206461746160601b6064820152608401610449565b808b146106345760405162461bcd60e51b815260206004820152602f60248201527f616c6c20696d706c656d656e746174696f6e73206d7573742072657475726e2060448201526e7468652073616d6520636865636b7360881b6064820152608401610449565b505050505050505b8061064681611b66565b9150506102fa565b50835160008082602088018260045af161066457fe5b806000803e85801561067557816000f35b816000fd5b50505050505050565b600060606000876001600160a01b031687876040516106a3929190611b81565b600060405180830381855af49150503d80600081146106de576040519150601f19603f3d011682016040523d82523d6000602084013e6106e3565b606091505b5060405191945092506106fc9084908490602001611b91565b60405160208183030381529060405280519060200120905060005b855181101561083357600086828151811061073457610734611aa4565b60200260200101519050600061074b828b8b610e17565b905060008083600001516001600160a01b03168360405161076c9190611b4a565b6000604051808303816000865af19150503d80600081146107a9576040519150601f19603f3d011682016040523d82523d6000602084013e6107ae565b606091505b5091509150816107ef5760405162461bcd60e51b815260206004820152600c60248201526b18da1958dac819985a5b195960a21b6044820152606401610449565b85828260405160200161080493929190611bbc565b60405160208183030381529060405280519060200120955050505050808061082b90611b66565b915050610717565b50831561085957828282604051637d827d4760e11b8152600401610449939291906117a0565b955095509592505050565b606060648054806020026020016040519081016040528092919081815260200182805480156108bc57602002820191906000526020600020905b81546001600160a01b0316815260019091019060200180831161089e575b5050505050905090565b600060606000806000306001600160a01b031688888860016040516024016108f19493929190611bee565b60408051601f198184030181529181526020820180516001600160e01b03166323fa6a1160e01b179052516109269190611b4a565b600060405180830381855af49150503d8060008114610961576040519150601f19603f3d011682016040523d82523d6000602084013e610966565b606091505b509150915081156109ae5760405162461bcd60e51b81526020600482015260126024820152711cda1bdd5b19081a185d994819985a5b195960721b6044820152606401610449565b6109b88282610d41565b945094509450505093509350939050565b6001600160e01b031984166000908152606560209081526040822080546001808201835582855292909320600290930290920180546001600160a01b0319166001600160a01b0387161781559061067a90820185856113d4565b60648181548110610a3357600080fd5b6000918252602090912001546001600160a01b0316905081565b6001600160e01b031981166000908152606560209081526040808320805482518185028101850190935280835260609492939192909184015b82821015610b5f576000848152602090819020604080518082019091526002850290910180546001600160a01b031682526001810180549293919291840191610ace90611a69565b80601f0160208091040260200160405190810160405280929190818152602001828054610afa90611a69565b8015610b475780601f10610b1c57610100808354040283529160200191610b47565b820191906000526020600020905b815481529060010190602001808311610b2a57829003601f168201915b50505050508152505081526020019060010190610a86565b505050509050919050565b805115610c1e576000826001600160a01b031682604051610b8b9190611b4a565b600060405180830381855af49150503d8060008114610bc6576040519150601f19603f3d011682016040523d82523d6000602084013e610bcb565b606091505b5050905080610c1c5760405162461bcd60e51b815260206004820152601860248201527f696e697469616c20646174612063616c6c206661696c656400000000000000006044820152606401610449565b505b50606480546001810182556000919091527f26700e13983fefbd9cf16da2ed70fa5c6798ac55062a4803121a869731e308d20180546001600160a01b0319166001600160a01b0392909216919091179055565b60656020528160005260406000208181548110610c8d57600080fd5b6000918252602090912060029091020180546001820180546001600160a01b039092169450919250610cbe90611a69565b80601f0160208091040260200160405190810160405280929190818152602001828054610cea90611a69565b8015610d375780601f10610d0c57610100808354040283529160200191610d37565b820191906000526020600020905b815481529060010190602001808311610d1a57829003601f168201915b5050505050905082565b60006060600084610d53576004840193505b600080600086806020019051810190610d6c9190611c38565b919750955093505050509250925092565b81518151600091908114610d95576000915050610e11565b60005b81811015610e0a57838181518110610db257610db2611aa4565b602001015160f81c60f81b6001600160f81b031916858281518110610dd957610dd9611aa4565b01602001516001600160f81b03191614610df857600092505050610e11565b80610e0281611b66565b915050610d98565b5060019150505b92915050565b6060610e2a8460200151600060046111f1565b905060008460200151600481518110610e4557610e45611aa4565b016020015160f81c9050600560005b8260ff168110156111e757600087602001518380610e7190611b66565b945081518110610e8357610e83611aa4565b016020015160f81c9050606081610ee8576000610ea48a60200151866112fe565b9050610ec58a60200151866002610ebb9190611cce565b8361ffff166111f1565b9150610ed2816002611ce6565b610ee09061ffff1686611cce565b9450506111c6565b60ff821660011415610f94576000610f048a60200151866112fe565b90506000610f228b60200151876002610f1d9190611cce565b6112fe565b90508961ffff83168a610f358486611ce6565b61ffff1692610f4693929190611d0c565b8080601f016020809104026020016040519081016040528093929190818152602001838380828437600092019190915250929550610f8b925060049150889050611cce565b955050506111c6565b60ff82166002141561118657600089602001518580610fb290611b66565b965081518110610fc457610fc4611aa4565b016020015160f81c905080610ff55760408051466020820152015b6040516020818303038152906040529150611180565b60ff811660011415611011576040805141602082015201610fdf565b60ff81166002141561102d576040805144602082015201610fdf565b60ff811660031415611049576040805145602082015201610fdf565b60ff811660041415611065576040805143602082015201610fdf565b60ff811660051415611081576040805142602082015201610fdf565b60ff8116600614156110a0575a604051602001610fdf91815260200190565b60ff8116600714156110bc576040805133602082015201610fdf565b60ff8116600814156110e457604080516001600160e01b031960003516602082015201610fdf565b60ff811660091415611100576040805134602082015201610fdf565b60ff8116600a141561111c57604080513a602082015201610fdf565b60ff8116600b1415611138576040805132602082015201610fdf565b60405162461bcd60e51b815260206004820152601c60248201527f756e6b6e6f776e20656e7669726f6e6d656e74207661726961626c65000000006044820152606401610449565b506111c6565b60405162461bcd60e51b8152602060048201526015602482015274756e6b6e6f776e20617267756d656e74207479706560581b6044820152606401610449565b6111d08682611357565b9550505080806111df90611b66565b915050610e54565b5050509392505050565b6060816111ff81601f611cce565b101561123e5760405162461bcd60e51b815260206004820152600e60248201526d736c6963655f6f766572666c6f7760901b6044820152606401610449565b6112488284611cce565b8451101561128c5760405162461bcd60e51b8152602060048201526011602482015270736c6963655f6f75744f66426f756e647360781b6044820152606401610449565b6060821580156112ab57604051915060008252602082016040526112f5565b6040519150601f8416801560200281840101858101878315602002848b0101015b818310156112e45780518352602092830192016112cc565b5050858452601f01601f1916604052505b50949350505050565b60008261130c836001611cce565b8151811061131c5761131c611aa4565b602001015160f81c60f81b60f81c60ff16600884848151811061134157611341611aa4565b016020015160f81c901b60ff1617905092915050565b6060806040519050835180825260208201818101602087015b81831015611388578051835260209283019201611370565b50855184518101855292509050808201602086015b818310156113b557805183526020928301920161139d565b508651929092011591909101601f01601f191660405250905092915050565b8280546113e090611a69565b90600052602060002090601f0160209004810192826114025760008555611448565b82601f1061141b5782800160ff19823516178555611448565b82800160010185558215611448579182015b8281111561144857823582559160200191906001019061142d565b50611454929150611458565b5090565b5b808211156114545760008155600101611459565b80356001600160a01b038116811461148457600080fd5b919050565b60008083601f84011261149b57600080fd5b50813567ffffffffffffffff8111156114b357600080fd5b6020830191508360208285010111156114cb57600080fd5b9250929050565b634e487b7160e01b600052604160045260246000fd5b6040805190810167ffffffffffffffff8111828210171561150b5761150b6114d2565b60405290565b604051601f8201601f1916810167ffffffffffffffff8111828210171561153a5761153a6114d2565b604052919050565b600067ffffffffffffffff82111561155c5761155c6114d2565b50601f01601f191660200190565b600082601f83011261157b57600080fd5b813561158e61158982611542565b611511565b8181528460208386010111156115a357600080fd5b816020850160208301376000918101602001919091529392505050565b600082601f8301126115d157600080fd5b8135602067ffffffffffffffff808311156115ee576115ee6114d2565b8260051b6115fd838201611511565b938452858101830193838101908886111561161757600080fd5b84880192505b85831015611698578235848111156116355760008081fd5b88016040818b03601f190181131561164d5760008081fd5b6116556114e8565b61166088840161146d565b81529082013590868211156116755760008081fd5b6116838c898486010161156a565b8189015284525050918401919084019061161d565b98975050505050505050565b80151581146116b257600080fd5b50565b6000806000806000608086880312156116cd57600080fd5b6116d68661146d565b9450602086013567ffffffffffffffff808211156116f357600080fd5b6116ff89838a01611489565b9096509450604088013591508082111561171857600080fd5b50611725888289016115c0565b9250506060860135611736816116a4565b809150509295509295909350565b60005b8381101561175f578181015183820152602001611747565b8381111561176e576000848401525b50505050565b6000815180845261178c816020860160208601611744565b601f01601f19169290920160200192915050565b83151581526060602082015260006117bb6060830185611774565b9050826040830152949350505050565b6020808252825182820181905260009190848201906040850190845b8181101561180c5783516001600160a01b0316835292840192918401916001016117e7565b50909695505050505050565b60008060006060848603121561182d57600080fd5b6118368461146d565b9250602084013567ffffffffffffffff8082111561185357600080fd5b61185f8783880161156a565b9350604086013591508082111561187557600080fd5b50611882868287016115c0565b9150509250925092565b80356001600160e01b03198116811461148457600080fd5b600080600080606085870312156118ba57600080fd5b6118c38561188c565b93506118d16020860161146d565b9250604085013567ffffffffffffffff8111156118ed57600080fd5b6118f987828801611489565b95989497509550505050565b60006020828403121561191757600080fd5b5035919050565b60006020828403121561193057600080fd5b6119398261188c565b9392505050565b600081518084526020808501808196508360051b8101915082860160005b858110156119a5578284038952815180516001600160a01b03168552850151604086860181905261199181870183611774565b9a87019a955050509084019060010161195e565b5091979650505050505050565b6020815260006119396020830184611940565b600080604083850312156119d857600080fd5b6119e18361146d565b9150602083013567ffffffffffffffff8111156119fd57600080fd5b611a098582860161156a565b9150509250929050565b60008060408385031215611a2657600080fd5b611a2f8361188c565b946020939093013593505050565b6001600160a01b0383168152604060208201819052600090611a6190830184611774565b949350505050565b600181811c90821680611a7d57607f821691505b60208210811415611a9e57634e487b7160e01b600052602260045260246000fd5b50919050565b634e487b7160e01b600052603260045260246000fd5b634e487b7160e01b600052601160045260246000fd5b600082821015611ae257611ae2611aba565b500390565b6001600160a01b03861681526080602082018190528101849052838560a0830137600060a085830101526000601f19601f860116820160a0838203016040840152611b3560a0820186611940565b91505082151560608301529695505050505050565b60008251611b5c818460208701611744565b9190910192915050565b6000600019821415611b7a57611b7a611aba565b5060010190565b8183823760009101908152919050565b82151560f81b815260008251611bae816001850160208701611744565b919091016001019392505050565b83815282151560f81b602082015260008251611bdf816021850160208701611744565b91909101602101949350505050565b6001600160a01b0385168152608060208201819052600090611c1290830186611774565b8281036040840152611c248186611940565b915050821515606083015295945050505050565b600080600060608486031215611c4d57600080fd5b8351611c58816116a4565b602085015190935067ffffffffffffffff811115611c7557600080fd5b8401601f81018613611c8657600080fd5b8051611c9461158982611542565b818152876020838501011115611ca957600080fd5b611cba826020830160208601611744565b809450505050604084015190509250925092565b60008219821115611ce157611ce1611aba565b500190565b600061ffff808316818516808303821115611d0357611d03611aba565b01949350505050565b60008085851115611d1c57600080fd5b83861115611d2957600080fd5b505082019391909203915056fea2646970667358221220b25f9e88591621d5c440d9085763ca63bb5ea209f66abd89caf9877270819a4264736f6c63430008090033","bytecodeSha1":"dbf1406d4d917624ce9553c99287a5f1fd4ca7a1","compiler":{"evm_version":"istanbul","optimizer":{"enabled":true,"runs":200},"version":"0.8.9+commit.e5eed63a"},"contractName":"Proxy","language":"Solidity","natspec":{"kind":"dev","methods":{"functionsChecks(bytes4,uint256)":{"notice":"maps a function signature to a set of checks"}},"version":1},"opcodes":"PUSH1 0x80 PUSH1 0x40 MSTORE PUSH1 0x4 CALLDATASIZE LT PUSH2 0x7F JUMPI PUSH1 0x0 CALLDATALOAD PUSH1 0xE0 SHR DUP1 PUSH4 0x845AFFC8 GT PUSH2 0x4E JUMPI DUP1 PUSH4 0x845AFFC8 EQ PUSH2 0x123 JUMPI DUP1 PUSH4 0x9E0F5951 EQ PUSH2 0x15B JUMPI DUP1 PUSH4 0xD974E41D EQ PUSH2 0x188 JUMPI DUP1 PUSH4 0xE1EC966E EQ PUSH2 0x1A8 JUMPI PUSH2 0x8E JUMP JUMPDEST DUP1 PUSH4 0x23FA6A11 EQ PUSH2 0x96 JUMPI DUP1 PUSH4 0x3522AFE6 EQ PUSH2 0xC1 JUMPI DUP1 PUSH4 0x3BD47BA4 EQ PUSH2 0xE3 JUMPI DUP1 PUSH4 0x629BA890 EQ PUSH2 0x103 JUMPI PUSH2 0x8E JUMP JUMPDEST CALLDATASIZE PUSH2 0x8E JUMPI PUSH2 0x8C PUSH2 0x1D6 JUMP JUMPDEST STOP JUMPDEST PUSH2 0x8C PUSH2 0x1D6 JUMP JUMPDEST PUSH2 0xA9 PUSH2 0xA4 CALLDATASIZE PUSH1 0x4 PUSH2 0x16B5 JUMP JUMPDEST PUSH2 0x683 JUMP JUMPDEST PUSH1 0x40 MLOAD PUSH2 0xB8 SWAP4 SWAP3 SWAP2 SWAP1 PUSH2 0x17A0 JUMP JUMPDEST PUSH1 0x40 MLOAD DUP1 SWAP2 SUB SWAP1 RETURN JUMPDEST CALLVALUE DUP1 ISZERO PUSH2 0xCD JUMPI PUSH1 0x0 DUP1 REVERT JUMPDEST POP PUSH2 0xD6 PUSH2 0x864 JUMP JUMPDEST PUSH1 0x40 MLOAD PUSH2 0xB8 SWAP2 SWAP1 PUSH2 0x17CB JUMP JUMPDEST CALLVALUE DUP1 ISZERO PUSH2 0xEF JUMPI PUSH1 0x0 DUP1 REVERT JUMPDEST POP PUSH2 0xA9 PUSH2 0xFE CALLDATASIZE PUSH1 0x4 PUSH2 0x1818 JUMP JUMPDEST PUSH2 0x8C6 JUMP JUMPDEST CALLVALUE DUP1 ISZERO PUSH2 0x10F JUMPI PUSH1 0x0 DUP1 REVERT JUMPDEST POP PUSH2 0x8C PUSH2 0x11E CALLDATASIZE PUSH1 0x4 PUSH2 0x18A4 JUMP JUMPDEST PUSH2 0x9C9 JUMP JUMPDEST CALLVALUE DUP1 ISZERO PUSH2 0x12F JUMPI PUSH1 0x0 DUP1 REVERT JUMPDEST POP PUSH2 0x143 PUSH2 0x13E CALLDATASIZE PUSH1 0x4 PUSH2 0x1905 JUMP JUMPDEST PUSH2 0xA23 JUMP JUMPDEST PUSH1 0x40 MLOAD PUSH1 0x1 PUSH1 0x1 PUSH1 0xA0 SHL SUB SWAP1 SWAP2 AND DUP2 MSTORE PUSH1 0x20 ADD PUSH2 0xB8 JUMP JUMPDEST CALLVALUE DUP1 ISZERO PUSH2 0x167 JUMPI PUSH1 0x0 DUP1 REVERT JUMPDEST POP PUSH2 0x17B PUSH2 0x176 CALLDATASIZE PUSH1 0x4 PUSH2 0x191E JUMP JUMPDEST PUSH2 0xA4D JUMP JUMPDEST PUSH1 0x40 MLOAD PUSH2 0xB8 SWAP2 SWAP1 PUSH2 0x19B2 JUMP JUMPDEST CALLVALUE DUP1 ISZERO PUSH2 0x194 JUMPI PUSH1 0x0 DUP1 REVERT JUMPDEST POP PUSH2 0x8C PUSH2 0x1A3 CALLDATASIZE PUSH1 0x4 PUSH2 0x19C5 JUMP JUMPDEST PUSH2 0xB6A JUMP JUMPDEST CALLVALUE DUP1 ISZERO PUSH2 0x1B4 JUMPI PUSH1 0x0 DUP1 REVERT JUMPDEST POP PUSH2 0x1C8 PUSH2 0x1C3 CALLDATASIZE PUSH1 0x4 PUSH2 0x1A13 JUMP JUMPDEST PUSH2 0xC71 JUMP JUMPDEST PUSH1 0x40 MLOAD PUSH2 0xB8 SWAP3 SWAP2 SWAP1 PUSH2 0x1A3D JUMP JUMPDEST PUSH1 0x0 DUP1 CALLDATALOAD PUSH1 0x1 PUSH1 0x1 PUSH1 0xE0 SHL SUB NOT AND DUP2 MSTORE PUSH1 0x65 PUSH1 0x20 SWAP1 DUP2 MSTORE PUSH1 0x40 DUP1 DUP4 KECCAK256 DUP1 SLOAD DUP3 MLOAD DUP2 DUP6 MUL DUP2 ADD DUP6 ADD SWAP1 SWAP4 MSTORE DUP1 DUP4 MSTORE PUSH1 0x60 SWAP4 DUP6 SWAP4 DUP5 SWAP4 SWAP1 SWAP3 SWAP1 SWAP2 DUP5 SWAP1 DUP5 ADD JUMPDEST DUP3 DUP3 LT ISZERO PUSH2 0x2EC JUMPI PUSH1 0x0 DUP5 DUP2 MSTORE PUSH1 0x20 SWAP1 DUP2 SWAP1 KECCAK256 PUSH1 0x40 DUP1 MLOAD DUP1 DUP3 ADD SWAP1 SWAP2 MSTORE PUSH1 0x2 DUP6 MUL SWAP1 SWAP2 ADD DUP1 SLOAD PUSH1 0x1 PUSH1 0x1 PUSH1 0xA0 SHL SUB AND DUP3 MSTORE PUSH1 0x1 DUP2 ADD DUP1 SLOAD SWAP3 SWAP4 SWAP2 SWAP3 SWAP2 DUP5 ADD SWAP2 PUSH2 0x25B SWAP1 PUSH2 0x1A69 JUMP JUMPDEST DUP1 PUSH1 0x1F ADD PUSH1 0x20 DUP1 SWAP2 DIV MUL PUSH1 0x20 ADD PUSH1 0x40 MLOAD SWAP1 DUP2 ADD PUSH1 0x40 MSTORE DUP1 SWAP3 SWAP2 SWAP1 DUP2 DUP2 MSTORE PUSH1 0x20 ADD DUP3 DUP1 SLOAD PUSH2 0x287 SWAP1 PUSH2 0x1A69 JUMP JUMPDEST DUP1 ISZERO PUSH2 0x2D4 JUMPI DUP1 PUSH1 0x1F LT PUSH2 0x2A9 JUMPI PUSH2 0x100 DUP1 DUP4 SLOAD DIV MUL DUP4 MSTORE SWAP2 PUSH1 0x20 ADD SWAP2 PUSH2 0x2D4 JUMP JUMPDEST DUP3 ADD SWAP2 SWAP1 PUSH1 0x0 MSTORE PUSH1 0x20 PUSH1 0x0 KECCAK256 SWAP1 JUMPDEST DUP2 SLOAD DUP2 MSTORE SWAP1 PUSH1 0x1 ADD SWAP1 PUSH1 0x20 ADD DUP1 DUP4 GT PUSH2 0x2B7 JUMPI DUP3 SWAP1 SUB PUSH1 0x1F AND DUP3 ADD SWAP2 JUMPDEST POP POP POP POP POP DUP2 MSTORE POP POP DUP2 MSTORE PUSH1 0x20 ADD SWAP1 PUSH1 0x1 ADD SWAP1 PUSH2 0x213 JUMP JUMPDEST POP POP PUSH1 0x64 SLOAD SWAP3 SWAP4 POP PUSH1 0x0 SWAP2 POP POP JUMPDEST DUP2 DUP2 LT ISZERO PUSH2 0x64E JUMPI PUSH1 0x0 PUSH1 0x64 DUP3 DUP2 SLOAD DUP2 LT PUSH2 0x317 JUMPI PUSH2 0x317 PUSH2 0x1AA4 JUMP JUMPDEST PUSH1 0x0 SWAP2 DUP3 MSTORE PUSH1 0x20 DUP3 KECCAK256 ADD SLOAD PUSH1 0x1 PUSH1 0x1 PUSH1 0xA0 SHL SUB AND SWAP2 POP PUSH2 0x338 PUSH1 0x1 DUP6 PUSH2 0x1AD0 JUMP JUMPDEST DUP4 EQ ISZERO SWAP1 POP PUSH1 0x0 DUP1 ADDRESS PUSH1 0x1 PUSH1 0x1 PUSH1 0xA0 SHL SUB AND DUP5 PUSH1 0x0 CALLDATASIZE DUP11 DUP8 PUSH1 0x40 MLOAD PUSH1 0x24 ADD PUSH2 0x364 SWAP6 SWAP5 SWAP4 SWAP3 SWAP2 SWAP1 PUSH2 0x1AE7 JUMP JUMPDEST PUSH1 0x40 DUP1 MLOAD PUSH1 0x1F NOT DUP2 DUP5 SUB ADD DUP2 MSTORE SWAP2 DUP2 MSTORE PUSH1 0x20 DUP3 ADD DUP1 MLOAD PUSH1 0x1 PUSH1 0x1 PUSH1 0xE0 SHL SUB AND PUSH4 0x23FA6A11 PUSH1 0xE0 SHL OR SWAP1 MSTORE MLOAD PUSH2 0x399 SWAP2 SWAP1 PUSH2 0x1B4A JUMP JUMPDEST PUSH1 0x0 PUSH1 0x40 MLOAD DUP1 DUP4 SUB DUP2 DUP6 GAS DELEGATECALL SWAP2 POP POP RETURNDATASIZE DUP1 PUSH1 0x0 DUP2 EQ PUSH2 0x3D4 JUMPI PUSH1 0x40 MLOAD SWAP2 POP PUSH1 0x1F NOT PUSH1 0x3F RETURNDATASIZE ADD AND DUP3 ADD PUSH1 0x40 MSTORE RETURNDATASIZE DUP3 MSTORE RETURNDATASIZE PUSH1 0x0 PUSH1 0x20 DUP5 ADD RETURNDATACOPY PUSH2 0x3D9 JUMP JUMPDEST PUSH1 0x60 SWAP2 POP JUMPDEST POP SWAP2 POP SWAP2 POP DUP2 ISZERO DUP1 ISZERO PUSH2 0x3EA JUMPI POP DUP3 ISZERO JUMPDEST ISZERO PUSH2 0x452 JUMPI PUSH1 0x40 MLOAD PUSH3 0x461BCD PUSH1 0xE5 SHL DUP2 MSTORE PUSH1 0x20 PUSH1 0x4 DUP3 ADD MSTORE PUSH1 0x2D PUSH1 0x24 DUP3 ADD MSTORE PUSH32 0x64656C656761746543616C6C2073686F756C6420686176652073756363656564 PUSH1 0x44 DUP3 ADD MSTORE PUSH13 0x195908189D5D0819985A5B1959 PUSH1 0x9A SHL PUSH1 0x64 DUP3 ADD MSTORE PUSH1 0x84 ADD JUMPDEST PUSH1 0x40 MLOAD DUP1 SWAP2 SUB SWAP1 REVERT JUMPDEST DUP2 DUP1 ISZERO PUSH2 0x45C JUMPI POP DUP3 JUMPDEST ISZERO PUSH2 0x4BF JUMPI PUSH1 0x40 MLOAD PUSH3 0x461BCD PUSH1 0xE5 SHL DUP2 MSTORE PUSH1 0x20 PUSH1 0x4 DUP3 ADD MSTORE PUSH1 0x2D PUSH1 0x24 DUP3 ADD MSTORE PUSH32 0x64656C656761746543616C6C2073686F756C642068617665206661696C656420 PUSH1 0x44 DUP3 ADD MSTORE PUSH13 0x189D5D081CDD58D8D959591959 PUSH1 0x9A SHL PUSH1 0x64 DUP3 ADD MSTORE PUSH1 0x84 ADD PUSH2 0x449 JUMP JUMPDEST PUSH1 0x0 DUP1 PUSH1 0x0 PUSH2 0x4CE DUP6 DUP6 PUSH2 0xD41 JUMP JUMPDEST SWAP3 POP SWAP3 POP SWAP3 POP DUP8 PUSH1 0x0 EQ ISZERO PUSH2 0x4EE JUMPI SWAP2 SWAP12 POP SWAP10 POP SWAP8 POP PUSH2 0x63C SWAP4 POP POP POP POP JUMP JUMPDEST DUP3 ISZERO ISZERO DUP14 ISZERO ISZERO EQ PUSH2 0x55A JUMPI PUSH1 0x40 MLOAD PUSH3 0x461BCD PUSH1 0xE5 SHL DUP2 MSTORE PUSH1 0x20 PUSH1 0x4 DUP3 ADD MSTORE PUSH1 0x30 PUSH1 0x24 DUP3 ADD MSTORE PUSH32 0x616C6C20696D706C656D656E746174696F6E73206D7573742072657475726E20 PUSH1 0x44 DUP3 ADD MSTORE PUSH16 0x7468652073616D652073756363657373 PUSH1 0x80 SHL PUSH1 0x64 DUP3 ADD MSTORE PUSH1 0x84 ADD PUSH2 0x449 JUMP JUMPDEST PUSH2 0x564 DUP13 DUP4 PUSH2 0xD7D JUMP JUMPDEST PUSH2 0x5CD JUMPI PUSH1 0x40 MLOAD PUSH3 0x461BCD PUSH1 0xE5 SHL DUP2 MSTORE PUSH1 0x20 PUSH1 0x4 DUP3 ADD MSTORE PUSH1 0x34 PUSH1 0x24 DUP3 ADD MSTORE PUSH32 0x616C6C20696D706C656D656E746174696F6E73206D7573742072657475726E20 PUSH1 0x44 DUP3 ADD MSTORE PUSH20 0x7468652073616D652072657475726E2064617461 PUSH1 0x60 SHL PUSH1 0x64 DUP3 ADD MSTORE PUSH1 0x84 ADD PUSH2 0x449 JUMP JUMPDEST DUP1 DUP12 EQ PUSH2 0x634 JUMPI PUSH1 0x40 MLOAD PUSH3 0x461BCD PUSH1 0xE5 SHL DUP2 MSTORE PUSH1 0x20 PUSH1 0x4 DUP3 ADD MSTORE PUSH1 0x2F PUSH1 0x24 DUP3 ADD MSTORE PUSH32 0x616C6C20696D706C656D656E746174696F6E73206D7573742072657475726E20 PUSH1 0x44 DUP3 ADD MSTORE PUSH15 0x7468652073616D6520636865636B73 PUSH1 0x88 SHL PUSH1 0x64 DUP3 ADD MSTORE PUSH1 0x84 ADD PUSH2 0x449 JUMP JUMPDEST POP POP POP POP POP POP POP JUMPDEST DUP1 PUSH2 0x646 DUP2 PUSH2 0x1B66 JUMP JUMPDEST SWAP2 POP POP PUSH2 0x2FA JUMP JUMPDEST POP DUP4 MLOAD PUSH1 0x0 DUP1 DUP3 PUSH1 0x20 DUP9 ADD DUP3 PUSH1 0x4 GAS CALL PUSH2 0x664 JUMPI INVALID JUMPDEST DUP1 PUSH1 0x0 DUP1 RETURNDATACOPY DUP6 DUP1 ISZERO PUSH2 0x675 JUMPI DUP2 PUSH1 0x0 RETURN JUMPDEST DUP2 PUSH1 0x0 REVERT JUMPDEST POP POP POP POP POP POP POP JUMP JUMPDEST PUSH1 0x0 PUSH1 0x60 PUSH1 0x0 DUP8 PUSH1 0x1 PUSH1 0x1 PUSH1 0xA0 SHL SUB AND DUP8 DUP8 PUSH1 0x40 MLOAD PUSH2 0x6A3 SWAP3 SWAP2 SWAP1 PUSH2 0x1B81 JUMP JUMPDEST PUSH1 0x0 PUSH1 0x40 MLOAD DUP1 DUP4 SUB DUP2 DUP6 GAS DELEGATECALL SWAP2 POP POP RETURNDATASIZE DUP1 PUSH1 0x0 DUP2 EQ PUSH2 0x6DE JUMPI PUSH1 0x40 MLOAD SWAP2 POP PUSH1 0x1F NOT PUSH1 0x3F RETURNDATASIZE ADD AND DUP3 ADD PUSH1 0x40 MSTORE RETURNDATASIZE DUP3 MSTORE RETURNDATASIZE PUSH1 0x0 PUSH1 0x20 DUP5 ADD RETURNDATACOPY PUSH2 0x6E3 JUMP JUMPDEST PUSH1 0x60 SWAP2 POP JUMPDEST POP PUSH1 0x40 MLOAD SWAP2 SWAP5 POP SWAP3 POP PUSH2 0x6FC SWAP1 DUP5 SWAP1 DUP5 SWAP1 PUSH1 0x20 ADD PUSH2 0x1B91 JUMP JUMPDEST PUSH1 0x40 MLOAD PUSH1 0x20 DUP2 DUP4 SUB SUB DUP2 MSTORE SWAP1 PUSH1 0x40 MSTORE DUP1 MLOAD SWAP1 PUSH1 0x20 ADD KECCAK256 SWAP1 POP PUSH1 0x0 JUMPDEST DUP6 MLOAD DUP2 LT ISZERO PUSH2 0x833 JUMPI PUSH1 0x0 DUP7 DUP3 DUP2 MLOAD DUP2 LT PUSH2 0x734 JUMPI PUSH2 0x734 PUSH2 0x1AA4 JUMP JUMPDEST PUSH1 0x20 MUL PUSH1 0x20 ADD ADD MLOAD SWAP1 POP PUSH1 0x0 PUSH2 0x74B DUP3 DUP12 DUP12 PUSH2 0xE17 JUMP JUMPDEST SWAP1 POP PUSH1 0x0 DUP1 DUP4 PUSH1 0x0 ADD MLOAD PUSH1 0x1 PUSH1 0x1 PUSH1 0xA0 SHL SUB AND DUP4 PUSH1 0x40 MLOAD PUSH2 0x76C SWAP2 SWAP1 PUSH2 0x1B4A JUMP JUMPDEST PUSH1 0x0 PUSH1 0x40 MLOAD DUP1 DUP4 SUB DUP2 PUSH1 0x0 DUP7 GAS CALL SWAP2 POP POP RETURNDATASIZE DUP1 PUSH1 0x0 DUP2 EQ PUSH2 0x7A9 JUMPI PUSH1 0x40 MLOAD SWAP2 POP PUSH1 0x1F NOT PUSH1 0x3F RETURNDATASIZE ADD AND DUP3 ADD PUSH1 0x40 MSTORE RETURNDATASIZE DUP3 MSTORE RETURNDATASIZE PUSH1 0x0 PUSH1 0x20 DUP5 ADD RETURNDATACOPY PUSH2 0x7AE JUMP JUMPDEST PUSH1 0x60 SWAP2 POP JUMPDEST POP SWAP2 POP SWAP2 POP DUP2 PUSH2 0x7EF JUMPI PUSH1 0x40 MLOAD PUSH3 0x461BCD PUSH1 0xE5 SHL DUP2 MSTORE PUSH1 0x20 PUSH1 0x4 DUP3 ADD MSTORE PUSH1 0xC PUSH1 0x24 DUP3 ADD MSTORE PUSH12 0x18DA1958DAC819985A5B1959 PUSH1 0xA2 SHL PUSH1 0x44 DUP3 ADD MSTORE PUSH1 0x64 ADD PUSH2 0x449 JUMP JUMPDEST DUP6 DUP3 DUP3 PUSH1 0x40 MLOAD PUSH1 0x20 ADD PUSH2 0x804 SWAP4 SWAP3 SWAP2 SWAP1 PUSH2 0x1BBC JUMP JUMPDEST PUSH1 0x40 MLOAD PUSH1 0x20 DUP2 DUP4 SUB SUB DUP2 MSTORE SWAP1 PUSH1 0x40 MSTORE DUP1 MLOAD SWAP1 PUSH1 0x20 ADD KECCAK256 SWAP6 POP POP POP POP POP DUP1 DUP1 PUSH2 0x82B SWAP1 PUSH2 0x1B66 JUMP JUMPDEST SWAP2 POP POP PUSH2 0x717 JUMP JUMPDEST POP DUP4 ISZERO PUSH2 0x859 JUMPI DUP3 DUP3 DUP3 PUSH1 0x40 MLOAD PUSH4 0x7D827D47 PUSH1 0xE1 SHL DUP2 MSTORE PUSH1 0x4 ADD PUSH2 0x449 SWAP4 SWAP3 SWAP2 SWAP1 PUSH2 0x17A0 JUMP JUMPDEST SWAP6 POP SWAP6 POP SWAP6 SWAP3 POP POP POP JUMP JUMPDEST PUSH1 0x60 PUSH1 0x64 DUP1 SLOAD DUP1 PUSH1 0x20 MUL PUSH1 0x20 ADD PUSH1 0x40 MLOAD SWAP1 DUP2 ADD PUSH1 0x40 MSTORE DUP1 SWAP3 SWAP2 SWAP1 DUP2 DUP2 MSTORE PUSH1 0x20 ADD DUP3 DUP1 SLOAD DUP1 ISZERO PUSH2 0x8BC JUMPI PUSH1 0x20 MUL DUP3 ADD SWAP2 SWAP1 PUSH1 0x0 MSTORE PUSH1 0x20 PUSH1 0x0 KECCAK256 SWAP1 JUMPDEST DUP2 SLOAD PUSH1 0x1 PUSH1 0x1 PUSH1 0xA0 SHL SUB AND DUP2 MSTORE PUSH1 0x1 SWAP1 SWAP2 ADD SWAP1 PUSH1 0x20 ADD DUP1 DUP4 GT PUSH2 0x89E JUMPI JUMPDEST POP POP POP POP POP SWAP1 POP SWAP1 JUMP JUMPDEST PUSH1 0x0 PUSH1 0x60 PUSH1 0x0 DUP1 PUSH1 0x0 ADDRESS PUSH1 0x1 PUSH1 0x1 PUSH1 0xA0 SHL SUB AND DUP9 DUP9 DUP9 PUSH1 0x1 PUSH1 0x40 MLOAD PUSH1 0x24 ADD PUSH2 0x8F1 SWAP5 SWAP4 SWAP3 SWAP2 SWAP1 PUSH2 0x1BEE JUMP JUMPDEST PUSH1 0x40 DUP1 MLOAD PUSH1 0x1F NOT DUP2 DUP5 SUB ADD DUP2 MSTORE SWAP2 DUP2 MSTORE PUSH1 0x20 DUP3 ADD DUP1 MLOAD PUSH1 0x1 PUSH1 0x1 PUSH1 0xE0 SHL SUB AND PUSH4 0x23FA6A11 PUSH1 0xE0 SHL OR SWAP1 MSTORE MLOAD PUSH2 0x926 SWAP2 SWAP1 PUSH2 0x1B4A JUMP JUMPDEST PUSH1 0x0 PUSH1 0x40 MLOAD DUP1 DUP4 SUB DUP2 DUP6 GAS DELEGATECALL SWAP2 POP POP RETURNDATASIZE DUP1 PUSH1 0x0 DUP2 EQ PUSH2 0x961 JUMPI PUSH1 0x40 MLOAD SWAP2 POP PUSH1 0x1F NOT PUSH1 0x3F RETURNDATASIZE ADD AND DUP3 ADD PUSH1 0x40 MSTORE RETURNDATASIZE DUP3 MSTORE RETURNDATASIZE PUSH1 0x0 PUSH1 0x20 DUP5 ADD RETURNDATACOPY PUSH2 0x966 JUMP JUMPDEST PUSH1 0x60 SWAP2 POP JUMPDEST POP SWAP2 POP SWAP2 POP DUP2 ISZERO PUSH2 0x9AE JUMPI PUSH1 0x40 MLOAD PUSH3 0x461BCD PUSH1 0xE5 SHL DUP2 MSTORE PUSH1 0x20 PUSH1 0x4 DUP3 ADD MSTORE PUSH1 0x12 PUSH1 0x24 DUP3 ADD MSTORE PUSH18 0x1CDA1BDD5B19081A185D994819985A5B1959 PUSH1 0x72 SHL PUSH1 0x44 DUP3 ADD MSTORE PUSH1 0x64 ADD PUSH2 0x449 JUMP JUMPDEST PUSH2 0x9B8 DUP3 DUP3 PUSH2 0xD41 JUMP JUMPDEST SWAP5 POP SWAP5 POP SWAP5 POP POP POP SWAP4 POP SWAP4 POP SWAP4 SWAP1 POP JUMP JUMPDEST PUSH1 0x1 PUSH1 0x1 PUSH1 0xE0 SHL SUB NOT DUP5 AND PUSH1 0x0 SWAP1 DUP2 MSTORE PUSH1 0x65 PUSH1 0x20 SWAP1 DUP2 MSTORE PUSH1 0x40 DUP3 KECCAK256 DUP1 SLOAD PUSH1 0x1 DUP1 DUP3 ADD DUP4 SSTORE DUP3 DUP6 MSTORE SWAP3 SWAP1 SWAP4 KECCAK256 PUSH1 0x2 SWAP1 SWAP4 MUL SWAP1 SWAP3 ADD DUP1 SLOAD PUSH1 0x1 PUSH1 0x1 PUSH1 0xA0 SHL SUB NOT AND PUSH1 0x1 PUSH1 0x1 PUSH1 0xA0 SHL SUB DUP8 AND OR DUP2 SSTORE SWAP1 PUSH2 0x67A SWAP1 DUP3 ADD DUP6 DUP6 PUSH2 0x13D4 JUMP JUMPDEST PUSH1 0x64 DUP2 DUP2 SLOAD DUP2 LT PUSH2 0xA33 JUMPI PUSH1 0x0 DUP1 REVERT JUMPDEST PUSH1 0x0 SWAP2 DUP3 MSTORE PUSH1 0x20 SWAP1 SWAP2 KECCAK256 ADD SLOAD PUSH1 0x1 PUSH1 0x1 PUSH1 0xA0 SHL SUB AND SWAP1 POP DUP2 JUMP JUMPDEST PUSH1 0x1 PUSH1 0x1 PUSH1 0xE0 SHL SUB NOT DUP2 AND PUSH1 0x0 SWAP1 DUP2 MSTORE PUSH1 0x65 PUSH1 0x20 SWAP1 DUP2 MSTORE PUSH1 0x40 DUP1 DUP4 KECCAK256 DUP1 SLOAD DUP3 MLOAD DUP2 DUP6 MUL DUP2 ADD DUP6 ADD SWAP1 SWAP4 MSTORE DUP1 DUP4 MSTORE PUSH1 0x60 SWAP5 SWAP3 SWAP4 SWAP2 SWAP3 SWAP1 SWAP2 DUP5 ADD JUMPDEST DUP3 DUP3 LT ISZERO PUSH2 0xB5F JUMPI PUSH1 0x0 DUP5 DUP2 MSTORE PUSH1 0x20 SWAP1 DUP2 SWAP1 KECCAK256 PUSH1 0x40 DUP1 MLOAD DUP1 DUP3 ADD SWAP1 SWAP2 MSTORE PUSH1 0x2 DUP6 MUL SWAP1 SWAP2 ADD DUP1 SLOAD PUSH1 0x1 PUSH1 0x1 PUSH1 0xA0 SHL SUB AND DUP3 MSTORE PUSH1 0x1 DUP2 ADD DUP1 SLOAD SWAP3 SWAP4 SWAP2 SWAP3 SWAP2 DUP5 ADD SWAP2 PUSH2 0xACE SWAP1 PUSH2 0x1A69 JUMP JUMPDEST DUP1 PUSH1 0x1F ADD PUSH1 0x20 DUP1 SWAP2 DIV MUL PUSH1 0x20 ADD PUSH1 0x40 MLOAD SWAP1 DUP2 ADD PUSH1 0x40 MSTORE DUP1 SWAP3 SWAP2 SWAP1 DUP2 DUP2 MSTORE PUSH1 0x20 ADD DUP3 DUP1 SLOAD PUSH2 0xAFA SWAP1 PUSH2 0x1A69 JUMP JUMPDEST DUP1 ISZERO PUSH2 0xB47 JUMPI DUP1 PUSH1 0x1F LT PUSH2 0xB1C JUMPI PUSH2 0x100 DUP1 DUP4 SLOAD DIV MUL DUP4 MSTORE SWAP2 PUSH1 0x20 ADD SWAP2 PUSH2 0xB47 JUMP JUMPDEST DUP3 ADD SWAP2 SWAP1 PUSH1 0x0 MSTORE PUSH1 0x20 PUSH1 0x0 KECCAK256 SWAP1 JUMPDEST DUP2 SLOAD DUP2 MSTORE SWAP1 PUSH1 0x1 ADD SWAP1 PUSH1 0x20 ADD DUP1 DUP4 GT PUSH2 0xB2A JUMPI DUP3 SWAP1 SUB PUSH1 0x1F AND DUP3 ADD SWAP2 JUMPDEST POP POP POP POP POP DUP2 MSTORE POP POP DUP2 MSTORE PUSH1 0x20 ADD SWAP1 PUSH1 0x1 ADD SWAP1 PUSH2 0xA86 JUMP JUMPDEST POP POP POP POP SWAP1 POP SWAP2 SWAP1 POP JUMP JUMPDEST DUP1 MLOAD ISZERO PUSH2 0xC1E JUMPI PUSH1 0x0 DUP3 PUSH1 0x1 PUSH1 0x1 PUSH1 0xA0 SHL SUB AND DUP3 PUSH1 0x40 MLOAD PUSH2 0xB8B SWAP2 SWAP1 PUSH2 0x1B4A JUMP JUMPDEST PUSH1 0x0 PUSH1 0x40 MLOAD DUP1 DUP4 SUB DUP2 DUP6 GAS DELEGATECALL SWAP2 POP POP RETURNDATASIZE DUP1 PUSH1 0x0 DUP2 EQ PUSH2 0xBC6 JUMPI PUSH1 0x40 MLOAD SWAP2 POP PUSH1 0x1F NOT PUSH1 0x3F RETURNDATASIZE ADD AND DUP3 ADD PUSH1 0x40 MSTORE RETURNDATASIZE DUP3 MSTORE RETURNDATASIZE PUSH1 0x0 PUSH1 0x20 DUP5 ADD RETURNDATACOPY PUSH2 0xBCB JUMP JUMPDEST PUSH1 0x60 SWAP2 POP JUMPDEST POP POP SWAP1 POP DUP1 PUSH2 0xC1C JUMPI PUSH1 0x40 MLOAD PUSH3 0x461BCD PUSH1 0xE5 SHL DUP2 MSTORE PUSH1 0x20 PUSH1 0x4 DUP3 ADD MSTORE PUSH1 0x18 PUSH1 0x24 DUP3 ADD MSTORE PUSH32 0x696E697469616C20646174612063616C6C206661696C65640000000000000000 PUSH1 0x44 DUP3 ADD MSTORE PUSH1 0x64 ADD PUSH2 0x449 JUMP JUMPDEST POP JUMPDEST POP PUSH1 0x64 DUP1 SLOAD PUSH1 0x1 DUP2 ADD DUP3 SSTORE PUSH1 0x0 SWAP2 SWAP1 SWAP2 MSTORE PUSH32 0x26700E13983FEFBD9CF16DA2ED70FA5C6798AC55062A4803121A869731E308D2 ADD DUP1 SLOAD PUSH1 0x1 PUSH1 0x1 PUSH1 0xA0 SHL SUB NOT AND PUSH1 0x1 PUSH1 0x1 PUSH1 0xA0 SHL SUB SWAP3 SWAP1 SWAP3 AND SWAP2 SWAP1 SWAP2 OR SWAP1 SSTORE JUMP JUMPDEST PUSH1 0x65 PUSH1 0x20 MSTORE DUP2 PUSH1 0x0 MSTORE PUSH1 0x40 PUSH1 0x0 KECCAK256 DUP2 DUP2 SLOAD DUP2 LT PUSH2 0xC8D JUMPI PUSH1 0x0 DUP1 REVERT JUMPDEST PUSH1 0x0 SWAP2 DUP3 MSTORE PUSH1 0x20 SWAP1 SWAP2 KECCAK256 PUSH1 0x2 SWAP1 SWAP2 MUL ADD DUP1 SLOAD PUSH1 0x1 DUP3 ADD DUP1 SLOAD PUSH1 0x1 PUSH1 0x1 PUSH1 0xA0 SHL SUB SWAP1 SWAP3 AND SWAP5 POP SWAP2 SWAP3 POP PUSH2 0xCBE SWAP1 PUSH2 0x1A69 JUMP JUMPDEST DUP1 PUSH1 0x1F ADD PUSH1 0x20 DUP1 SWAP2 DIV MUL PUSH1 0x20 ADD PUSH1 0x40 MLOAD SWAP1 DUP2 ADD PUSH1 0x40 MSTORE DUP1 SWAP3 SWAP2 SWAP1 DUP2 DUP2 MSTORE PUSH1 0x20 ADD DUP3 DUP1 SLOAD PUSH2 0xCEA SWAP1 PUSH2 0x1A69 JUMP JUMPDEST DUP1 ISZERO PUSH2 0xD37 JUMPI DUP1 PUSH1 0x1F LT PUSH2 0xD0C JUMPI PUSH2 0x100 DUP1 DUP4 SLOAD DIV MUL DUP4 MSTORE SWAP2 PUSH1 0x20 ADD SWAP2 PUSH2 0xD37 JUMP JUMPDEST DUP3 ADD SWAP2 SWAP1 PUSH1 0x0 MSTORE PUSH1 0x20 PUSH1 0x0 KECCAK256 SWAP1 JUMPDEST DUP2 SLOAD DUP2 MSTORE SWAP1 PUSH1 0x1 ADD SWAP1 PUSH1 0x20 ADD DUP1 DUP4 GT PUSH2 0xD1A JUMPI DUP3 SWAP1 SUB PUSH1 0x1F AND DUP3 ADD SWAP2 JUMPDEST POP POP POP POP POP SWAP1 POP DUP3 JUMP JUMPDEST PUSH1 0x0 PUSH1 0x60 PUSH1 0x0 DUP5 PUSH2 0xD53 JUMPI PUSH1 0x4 DUP5 ADD SWAP4 POP JUMPDEST PUSH1 0x0 DUP1 PUSH1 0x0 DUP7 DUP1 PUSH1 0x20 ADD SWAP1 MLOAD DUP2 ADD SWAP1 PUSH2 0xD6C SWAP2 SWAP1 PUSH2 0x1C38 JUMP JUMPDEST SWAP2 SWAP8 POP SWAP6 POP SWAP4 POP POP POP POP SWAP3 POP SWAP3 POP SWAP3 JUMP JUMPDEST DUP2 MLOAD DUP2 MLOAD PUSH1 0x0 SWAP2 SWAP1 DUP2 EQ PUSH2 0xD95 JUMPI PUSH1 0x0 SWAP2 POP POP PUSH2 0xE11 JUMP JUMPDEST PUSH1 0x0 JUMPDEST DUP2 DUP2 LT ISZERO PUSH2 0xE0A JUMPI DUP4 DUP2 DUP2 MLOAD DUP2 LT PUSH2 0xDB2 JUMPI PUSH2 0xDB2 PUSH2 0x1AA4 JUMP JUMPDEST PUSH1 0x20 ADD ADD MLOAD PUSH1 0xF8 SHR PUSH1 0xF8 SHL PUSH1 0x1 PUSH1 0x1 PUSH1 0xF8 SHL SUB NOT AND DUP6 DUP3 DUP2 MLOAD DUP2 LT PUSH2 0xDD9 JUMPI PUSH2 0xDD9 PUSH2 0x1AA4 JUMP JUMPDEST ADD PUSH1 0x20 ADD MLOAD PUSH1 0x1 PUSH1 0x1 PUSH1 0xF8 SHL SUB NOT AND EQ PUSH2 0xDF8 JUMPI PUSH1 0x0 SWAP3 POP POP POP PUSH2 0xE11 JUMP JUMPDEST DUP1 PUSH2 0xE02 DUP2 PUSH2 0x1B66 JUMP JUMPDEST SWAP2 POP POP PUSH2 0xD98 JUMP JUMPDEST POP PUSH1 0x1 SWAP2 POP POP JUMPDEST SWAP3 SWAP2 POP POP JUMP JUMPDEST PUSH1 0x60 PUSH2 0xE2A DUP5 PUSH1 0x20 ADD MLOAD PUSH1 0x0 PUSH1 0x4 PUSH2 0x11F1 JUMP JUMPDEST SWAP1 POP PUSH1 0x0 DUP5 PUSH1 0x20 ADD MLOAD PUSH1 0x4 DUP2 MLOAD DUP2 LT PUSH2 0xE45 JUMPI PUSH2 0xE45 PUSH2 0x1AA4 JUMP JUMPDEST ADD PUSH1 0x20 ADD MLOAD PUSH1 0xF8 SHR SWAP1 POP PUSH1 0x5 PUSH1 0x0 JUMPDEST DUP3 PUSH1 0xFF AND DUP2 LT ISZERO PUSH2 0x11E7 JUMPI PUSH1 0x0 DUP8 PUSH1 0x20 ADD MLOAD DUP4 DUP1 PUSH2 0xE71 SWAP1 PUSH2 0x1B66 JUMP JUMPDEST SWAP5 POP DUP2 MLOAD DUP2 LT PUSH2 0xE83 JUMPI PUSH2 0xE83 PUSH2 0x1AA4 JUMP JUMPDEST ADD PUSH1 0x20 ADD MLOAD PUSH1 0xF8 SHR SWAP1 POP PUSH1 0x60 DUP2 PUSH2 0xEE8 JUMPI PUSH1 0x0 PUSH2 0xEA4 DUP11 PUSH1 0x20 ADD MLOAD DUP7 PUSH2 0x12FE JUMP JUMPDEST SWAP1 POP PUSH2 0xEC5 DUP11 PUSH1 0x20 ADD MLOAD DUP7 PUSH1 0x2 PUSH2 0xEBB SWAP2 SWAP1 PUSH2 0x1CCE JUMP JUMPDEST DUP4 PUSH2 0xFFFF AND PUSH2 0x11F1 JUMP JUMPDEST SWAP2 POP PUSH2 0xED2 DUP2 PUSH1 0x2 PUSH2 0x1CE6 JUMP JUMPDEST PUSH2 0xEE0 SWAP1 PUSH2 0xFFFF AND DUP7 PUSH2 0x1CCE JUMP JUMPDEST SWAP5 POP POP PUSH2 0x11C6 JUMP JUMPDEST PUSH1 0xFF DUP3 AND PUSH1 0x1 EQ ISZERO PUSH2 0xF94 JUMPI PUSH1 0x0 PUSH2 0xF04 DUP11 PUSH1 0x20 ADD MLOAD DUP7 PUSH2 0x12FE JUMP JUMPDEST SWAP1 POP PUSH1 0x0 PUSH2 0xF22 DUP12 PUSH1 0x20 ADD MLOAD DUP8 PUSH1 0x2 PUSH2 0xF1D SWAP2 SWAP1 PUSH2 0x1CCE JUMP JUMPDEST PUSH2 0x12FE JUMP JUMPDEST SWAP1 POP DUP10 PUSH2 0xFFFF DUP4 AND DUP11 PUSH2 0xF35 DUP5 DUP7 PUSH2 0x1CE6 JUMP JUMPDEST PUSH2 0xFFFF AND SWAP3 PUSH2 0xF46 SWAP4 SWAP3 SWAP2 SWAP1 PUSH2 0x1D0C JUMP JUMPDEST DUP1 DUP1 PUSH1 0x1F ADD PUSH1 0x20 DUP1 SWAP2 DIV MUL PUSH1 0x20 ADD PUSH1 0x40 MLOAD SWAP1 DUP2 ADD PUSH1 0x40 MSTORE DUP1 SWAP4 SWAP3 SWAP2 SWAP1 DUP2 DUP2 MSTORE PUSH1 0x20 ADD DUP4 DUP4 DUP1 DUP3 DUP5 CALLDATACOPY PUSH1 0x0 SWAP3 ADD SWAP2 SWAP1 SWAP2 MSTORE POP SWAP3 SWAP6 POP PUSH2 0xF8B SWAP3 POP PUSH1 0x4 SWAP2 POP DUP9 SWAP1 POP PUSH2 0x1CCE JUMP JUMPDEST SWAP6 POP POP POP PUSH2 0x11C6 JUMP JUMPDEST PUSH1 0xFF DUP3 AND PUSH1 0x2 EQ ISZERO PUSH2 0x1186 JUMPI PUSH1 0x0 DUP10 PUSH1 0x20 ADD MLOAD DUP6 DUP1 PUSH2 0xFB2 SWAP1 PUSH2 0x1B66 JUMP JUMPDEST SWAP7 POP DUP2 MLOAD DUP2 LT PUSH2 0xFC4 JUMPI PUSH2 0xFC4 PUSH2 0x1AA4 JUMP JUMPDEST ADD PUSH1 0x20 ADD MLOAD PUSH1 0xF8 SHR SWAP1 POP DUP1 PUSH2 0xFF5 JUMPI PUSH1 0x40 DUP1 MLOAD CHAINID PUSH1 0x20 DUP3 ADD MSTORE ADD JUMPDEST PUSH1 0x40 MLOAD PUSH1 0x20 DUP2 DUP4 SUB SUB DUP2 MSTORE SWAP1 PUSH1 0x40 MSTORE SWAP2 POP PUSH2 0x1180 JUMP JUMPDEST PUSH1 0xFF DUP2 AND PUSH1 0x1 EQ ISZERO PUSH2 0x1011 JUMPI PUSH1 0x40 DUP1 MLOAD COINBASE PUSH1 0x20 DUP3 ADD MSTORE ADD PUSH2 0xFDF JUMP JUMPDEST PUSH1 0xFF DUP2 AND PUSH1 0x2 EQ ISZERO PUSH2 0x102D JUMPI PUSH1 0x40 DUP1 MLOAD DIFFICULTY PUSH1 0x20 DUP3 ADD MSTORE ADD PUSH2 0xFDF JUMP JUMPDEST PUSH1 0xFF DUP2 AND PUSH1 0x3 EQ ISZERO PUSH2 0x1049 JUMPI PUSH1 0x40 DUP1 MLOAD GASLIMIT PUSH1 0x20 DUP3 ADD MSTORE ADD PUSH2 0xFDF JUMP JUMPDEST PUSH1 0xFF DUP2 AND PUSH1 0x4 EQ ISZERO PUSH2 0x1065 JUMPI PUSH1 0x40 DUP1 MLOAD NUMBER PUSH1 0x20 DUP3 ADD MSTORE ADD PUSH2 0xFDF JUMP JUMPDEST PUSH1 0xFF DUP2 AND PUSH1 0x5 EQ ISZERO PUSH2 0x1081 JUMPI PUSH1 0x40 DUP1 MLOAD TIMESTAMP PUSH1 0x20 DUP3 ADD MSTORE ADD PUSH2 0xFDF JUMP JUMPDEST PUSH1 0xFF DUP2 AND PUSH1 0x6 EQ ISZERO PUSH2 0x10A0 JUMPI GAS PUSH1 0x40 MLOAD PUSH1 0x20 ADD PUSH2 0xFDF SWAP2 DUP2 MSTORE PUSH1 0x20 ADD SWAP1 JUMP JUMPDEST PUSH1 0xFF DUP2 AND PUSH1 0x7 EQ ISZERO PUSH2 0x10BC JUMPI PUSH1 0x40 DUP1 MLOAD CALLER PUSH1 0x20 DUP3 ADD MSTORE ADD PUSH2 0xFDF JUMP JUMPDEST PUSH1 0xFF DUP2 AND PUSH1 0x8 EQ ISZERO PUSH2 0x10E4 JUMPI PUSH1 0x40 DUP1 MLOAD PUSH1 0x1 PUSH1 0x1 PUSH1 0xE0 SHL SUB NOT PUSH1 0x0 CALLDATALOAD AND PUSH1 0x20 DUP3 ADD MSTORE ADD PUSH2 0xFDF JUMP JUMPDEST PUSH1 0xFF DUP2 AND PUSH1 0x9 EQ ISZERO PUSH2 0x1100 JUMPI PUSH1 0x40 DUP1 MLOAD CALLVALUE PUSH1 0x20 DUP3 ADD MSTORE ADD PUSH2 0xFDF JUMP JUMPDEST PUSH1 0xFF DUP2 AND PUSH1 0xA EQ ISZERO PUSH2 0x111C JUMPI PUSH1 0x40 DUP1 MLOAD GASPRICE PUSH1 0x20 DUP3 ADD MSTORE ADD PUSH2 0xFDF JUMP JUMPDEST PUSH1 0xFF DUP2 AND PUSH1 0xB EQ ISZERO PUSH2 0x1138 JUMPI PUSH1 0x40 DUP1 MLOAD ORIGIN PUSH1 0x20 DUP3 ADD MSTORE ADD PUSH2 0xFDF JUMP JUMPDEST PUSH1 0x40 MLOAD PUSH3 0x461BCD PUSH1 0xE5 SHL DUP2 MSTORE PUSH1 0x20 PUSH1 0x4 DUP3 ADD MSTORE PUSH1 0x1C PUSH1 0x24 DUP3 ADD MSTORE PUSH32 0x756E6B6E6F776E20656E7669726F6E6D656E74207661726961626C6500000000 PUSH1 0x44 DUP3 ADD MSTORE PUSH1 0x64 ADD PUSH2 0x449 JUMP JUMPDEST POP PUSH2 0x11C6 JUMP JUMPDEST PUSH1 0x40 MLOAD PUSH3 0x461BCD PUSH1 0xE5 SHL DUP2 MSTORE PUSH1 0x20 PUSH1 0x4 DUP3 ADD MSTORE PUSH1 0x15 PUSH1 0x24 DUP3 ADD MSTORE PUSH21 0x756E6B6E6F776E20617267756D656E742074797065 PUSH1 0x58 SHL PUSH1 0x44 DUP3 ADD MSTORE PUSH1 0x64 ADD PUSH2 0x449 JUMP JUMPDEST PUSH2 0x11D0 DUP7 DUP3 PUSH2 0x1357 JUMP JUMPDEST SWAP6 POP POP POP DUP1 DUP1 PUSH2 0x11DF SWAP1 PUSH2 0x1B66 JUMP JUMPDEST SWAP2 POP POP PUSH2 0xE54 JUMP JUMPDEST POP POP POP SWAP4 SWAP3 POP POP POP JUMP JUMPDEST PUSH1 0x60 DUP2 PUSH2 0x11FF DUP2 PUSH1 0x1F PUSH2 0x1CCE JUMP JUMPDEST LT ISZERO PUSH2 0x123E JUMPI PUSH1 0x40 MLOAD PUSH3 0x461BCD PUSH1 0xE5 SHL DUP2 MSTORE PUSH1 0x20 PUSH1 0x4 DUP3 ADD MSTORE PUSH1 0xE PUSH1 0x24 DUP3 ADD MSTORE PUSH14 0x736C6963655F6F766572666C6F77 PUSH1 0x90 SHL PUSH1 0x44 DUP3 ADD MSTORE PUSH1 0x64 ADD PUSH2 0x449 JUMP JUMPDEST PUSH2 0x1248 DUP3 DUP5 PUSH2 0x1CCE JUMP JUMPDEST DUP5 MLOAD LT ISZERO PUSH2 0x128C JUMPI PUSH1 0x40 MLOAD PUSH3 0x461BCD PUSH1 0xE5 SHL DUP2 MSTORE PUSH1 0x20 PUSH1 0x4 DUP3 ADD MSTORE PUSH1 0x11 PUSH1 0x24 DUP3 ADD MSTORE PUSH17 0x736C6963655F6F75744F66426F756E6473 PUSH1 0x78 SHL PUSH1 0x44 DUP3 ADD MSTORE PUSH1 0x64 ADD PUSH2 0x449 JUMP JUMPDEST PUSH1 0x60 DUP3 ISZERO DUP1 ISZERO PUSH2 0x12AB JUMPI PUSH1 0x40 MLOAD SWAP2 POP PUSH1 0x0 DUP3 MSTORE PUSH1 0x20 DUP3 ADD PUSH1 0x40 MSTORE PUSH2 0x12F5 JUMP JUMPDEST PUSH1 0x40 MLOAD SWAP2 POP PUSH1 0x1F DUP5 AND DUP1 ISZERO PUSH1 0x20 MUL DUP2 DUP5 ADD ADD DUP6 DUP2 ADD DUP8 DUP4 ISZERO PUSH1 0x20 MUL DUP5 DUP12 ADD ADD ADD JUMPDEST DUP2 DUP4 LT ISZERO PUSH2 0x12E4 JUMPI DUP1 MLOAD DUP4 MSTORE PUSH1 0x20 SWAP3 DUP4 ADD SWAP3 ADD PUSH2 0x12CC JUMP JUMPDEST POP POP DUP6 DUP5 MSTORE PUSH1 0x1F ADD PUSH1 0x1F NOT AND PUSH1 0x40 MSTORE POP JUMPDEST POP SWAP5 SWAP4 POP POP POP POP JUMP JUMPDEST PUSH1 0x0 DUP3 PUSH2 0x130C DUP4 PUSH1 0x1 PUSH2 0x1CCE JUMP JUMPDEST DUP2 MLOAD DUP2 LT PUSH2 0x131C JUMPI PUSH2 0x131C PUSH2 0x1AA4 JUMP JUMPDEST PUSH1 0x20 ADD ADD MLOAD PUSH1 0xF8 SHR PUSH1 0xF8 SHL PUSH1 0xF8 SHR PUSH1 0xFF AND PUSH1 0x8 DUP5 DUP5 DUP2 MLOAD DUP2 LT PUSH2 0x1341 JUMPI PUSH2 0x1341 PUSH2 0x1AA4 JUMP JUMPDEST ADD PUSH1 0x20 ADD MLOAD PUSH1 0xF8 SHR SWAP1 SHL PUSH1 0xFF AND OR SWAP1 POP SWAP3 SWAP2 POP POP JUMP JUMPDEST PUSH1 0x60 DUP1 PUSH1 0x40 MLOAD SWAP1 POP DUP4 MLOAD DUP1 DUP3 MSTORE PUSH1 0x20 DUP3 ADD DUP2 DUP2 ADD PUSH1 0x20 DUP8 ADD JUMPDEST DUP2 DUP4 LT ISZERO PUSH2 0x1388 JUMPI DUP1 MLOAD DUP4 MSTORE PUSH1 0x20 SWAP3 DUP4 ADD SWAP3 ADD PUSH2 0x1370 JUMP JUMPDEST POP DUP6 MLOAD DUP5 MLOAD DUP2 ADD DUP6 MSTORE SWAP3 POP SWAP1 POP DUP1 DUP3 ADD PUSH1 0x20 DUP7 ADD JUMPDEST DUP2 DUP4 LT ISZERO PUSH2 0x13B5 JUMPI DUP1 MLOAD DUP4 MSTORE PUSH1 0x20 SWAP3 DUP4 ADD SWAP3 ADD PUSH2 0x139D JUMP JUMPDEST POP DUP7 MLOAD SWAP3 SWAP1 SWAP3 ADD ISZERO SWAP2 SWAP1 SWAP2 ADD PUSH1 0x1F ADD PUSH1 0x1F NOT AND PUSH1 0x40 MSTORE POP SWAP1 POP SWAP3 SWAP2 POP POP JUMP JUMPDEST DUP3 DUP1 SLOAD PUSH2 0x13E0 SWAP1 PUSH2 0x1A69 JUMP JUMPDEST SWAP1 PUSH1 0x0 MSTORE PUSH1 0x20 PUSH1 0x0 KECCAK256 SWAP1 PUSH1 0x1F ADD PUSH1 0x20 SWAP1 DIV DUP2 ADD SWAP3 DUP3 PUSH2 0x1402 JUMPI PUSH1 0x0 DUP6 SSTORE PUSH2 0x1448 JUMP JUMPDEST DUP3 PUSH1 0x1F LT PUSH2 0x141B JUMPI DUP3 DUP1 ADD PUSH1 0xFF NOT DUP3 CALLDATALOAD AND OR DUP6 SSTORE PUSH2 0x1448 JUMP JUMPDEST DUP3 DUP1 ADD PUSH1 0x1 ADD DUP6 SSTORE DUP3 ISZERO PUSH2 0x1448 JUMPI SWAP2 DUP3 ADD JUMPDEST DUP3 DUP2 GT ISZERO PUSH2 0x1448 JUMPI DUP3 CALLDATALOAD DUP3 SSTORE SWAP2 PUSH1 0x20 ADD SWAP2 SWAP1 PUSH1 0x1 ADD SWAP1 PUSH2 0x142D JUMP JUMPDEST POP PUSH2 0x1454 SWAP3 SWAP2 POP PUSH2 0x1458 JUMP JUMPDEST POP SWAP1 JUMP JUMPDEST JUMPDEST DUP1 DUP3 GT ISZERO PUSH2 0x1454 JUMPI PUSH1 0x0 DUP2 SSTORE PUSH1 0x1 ADD PUSH2 0x1459 JUMP JUMPDEST DUP1 CALLDATALOAD PUSH1 0x1 PUSH1 0x1 PUSH1 0xA0 SHL SUB DUP2 AND DUP2 EQ PUSH2 0x1484 JUMPI PUSH1 0x0 DUP1 REVERT JUMPDEST SWAP2 SWAP1 POP JUMP JUMPDEST PUSH1 0x0 DUP1 DUP4 PUSH1 0x1F DUP5 ADD SLT PUSH2 0x149B JUMPI PUSH1 0x0 DUP1 REVERT JUMPDEST POP DUP2 CALLDATALOAD PUSH8 0xFFFFFFFFFFFFFFFF DUP2 GT ISZERO PUSH2 0x14B3 JUMPI PUSH1 0x0 DUP1 REVERT JUMPDEST PUSH1 0x20 DUP4 ADD SWAP2 POP DUP4 PUSH1 0x20 DUP3 DUP6 ADD ADD GT ISZERO PUSH2 0x14CB JUMPI PUSH1 0x0 DUP1 REVERT JUMPDEST SWAP3 POP SWAP3 SWAP1 POP JUMP JUMPDEST PUSH4 0x4E487B71 PUSH1 0xE0 SHL PUSH1 0x0 MSTORE PUSH1 0x41 PUSH1 0x4 MSTORE PUSH1 0x24 PUSH1 0x0 REVERT JUMPDEST PUSH1 0x40 DUP1 MLOAD SWAP1 DUP2 ADD PUSH8 0xFFFFFFFFFFFFFFFF DUP2 GT DUP3 DUP3 LT OR ISZERO PUSH2 0x150B JUMPI PUSH2 0x150B PUSH2 0x14D2 JUMP JUMPDEST PUSH1 0x40 MSTORE SWAP1 JUMP JUMPDEST PUSH1 0x40 MLOAD PUSH1 0x1F DUP3 ADD PUSH1 0x1F NOT AND DUP2 ADD PUSH8 0xFFFFFFFFFFFFFFFF DUP2 GT DUP3 DUP3 LT OR ISZERO PUSH2 0x153A JUMPI PUSH2 0x153A PUSH2 0x14D2 JUMP JUMPDEST PUSH1 0x40 MSTORE SWAP2 SWAP1 POP JUMP JUMPDEST PUSH1 0x0 PUSH8 0xFFFFFFFFFFFFFFFF DUP3 GT ISZERO PUSH2 0x155C JUMPI PUSH2 0x155C PUSH2 0x14D2 JUMP JUMPDEST POP PUSH1 0x1F ADD PUSH1 0x1F NOT AND PUSH1 0x20 ADD SWAP1 JUMP JUMPDEST PUSH1 0x0 DUP3 PUSH1 0x1F DUP4 ADD SLT PUSH2 0x157B JUMPI PUSH1 0x0 DUP1 REVERT JUMPDEST DUP2 CALLDATALOAD PUSH2 0x158E PUSH2 0x1589 DUP3 PUSH2 0x1542 JUMP JUMPDEST PUSH2 0x1511 JUMP JUMPDEST DUP2 DUP2 MSTORE DUP5 PUSH1 0x20 DUP4 DUP7 ADD ADD GT ISZERO PUSH2 0x15A3 JUMPI PUSH1 0x0 DUP1 REVERT JUMPDEST DUP2 PUSH1 0x20 DUP6 ADD PUSH1 0x20 DUP4 ADD CALLDATACOPY PUSH1 0x0 SWAP2 DUP2 ADD PUSH1 0x20 ADD SWAP2 SWAP1 SWAP2 MSTORE SWAP4 SWAP3 POP POP POP JUMP JUMPDEST PUSH1 0x0 DUP3 PUSH1 0x1F DUP4 ADD SLT PUSH2 0x15D1 JUMPI PUSH1 0x0 DUP1 REVERT JUMPDEST DUP2 CALLDATALOAD PUSH1 0x20 PUSH8 0xFFFFFFFFFFFFFFFF DUP1 DUP4 GT ISZERO PUSH2 0x15EE JUMPI PUSH2 0x15EE PUSH2 0x14D2 JUMP JUMPDEST DUP3 PUSH1 0x5 SHL PUSH2 0x15FD DUP4 DUP3 ADD PUSH2 0x1511 JUMP JUMPDEST SWAP4 DUP5 MSTORE DUP6 DUP2 ADD DUP4 ADD SWAP4 DUP4 DUP2 ADD SWAP1 DUP9 DUP7 GT ISZERO PUSH2 0x1617 JUMPI PUSH1 0x0 DUP1 REVERT JUMPDEST DUP5 DUP9 ADD SWAP3 POP JUMPDEST DUP6 DUP4 LT ISZERO PUSH2 0x1698 JUMPI DUP3 CALLDATALOAD DUP5 DUP2 GT ISZERO PUSH2 0x1635 JUMPI PUSH1 0x0 DUP1 DUP2 REVERT JUMPDEST DUP9 ADD PUSH1 0x40 DUP2 DUP12 SUB PUSH1 0x1F NOT ADD DUP2 SGT ISZERO PUSH2 0x164D JUMPI PUSH1 0x0 DUP1 DUP2 REVERT JUMPDEST PUSH2 0x1655 PUSH2 0x14E8 JUMP JUMPDEST PUSH2 0x1660 DUP9 DUP5 ADD PUSH2 0x146D JUMP JUMPDEST DUP2 MSTORE SWAP1 DUP3 ADD CALLDATALOAD SWAP1 DUP7 DUP3 GT ISZERO PUSH2 0x1675 JUMPI PUSH1 0x0 DUP1 DUP2 REVERT JUMPDEST PUSH2 0x1683 DUP13 DUP10 DUP5 DUP7 ADD ADD PUSH2 0x156A JUMP JUMPDEST DUP2 DUP10 ADD MSTORE DUP5 MSTORE POP POP SWAP2 DUP5 ADD SWAP2 SWAP1 DUP5 ADD SWAP1 PUSH2 0x161D JUMP JUMPDEST SWAP9 SWAP8 POP POP POP POP POP POP POP POP JUMP JUMPDEST DUP1 ISZERO ISZERO DUP2 EQ PUSH2 0x16B2 JUMPI PUSH1 0x0 DUP1 REVERT JUMPDEST POP JUMP JUMPDEST PUSH1 0x0 DUP1 PUSH1 0x0 DUP1 PUSH1 0x0 PUSH1 0x80 DUP7 DUP9 SUB SLT ISZERO PUSH2 0x16CD JUMPI PUSH1 0x0 DUP1 REVERT JUMPDEST PUSH2 0x16D6 DUP7 PUSH2 0x146D JUMP JUMPDEST SWAP5 POP PUSH1 0x20 DUP7 ADD CALLDATALOAD PUSH8 0xFFFFFFFFFFFFFFFF DUP1 DUP3 GT ISZERO PUSH2 0x16F3 JUMPI PUSH1 0x0 DUP1 REVERT JUMPDEST PUSH2 0x16FF DUP10 DUP4 DUP11 ADD PUSH2 0x1489 JUMP JUMPDEST SWAP1 SWAP7 POP SWAP5 POP PUSH1 0x40 DUP9 ADD CALLDATALOAD SWAP2 POP DUP1 DUP3 GT ISZERO PUSH2 0x1718 JUMPI PUSH1 0x0 DUP1 REVERT JUMPDEST POP PUSH2 0x1725 DUP9 DUP3 DUP10 ADD PUSH2 0x15C0 JUMP JUMPDEST SWAP3 POP POP PUSH1 0x60 DUP7 ADD CALLDATALOAD PUSH2 0x1736 DUP2 PUSH2 0x16A4 JUMP JUMPDEST DUP1 SWAP2 POP POP SWAP3 SWAP6 POP SWAP3 SWAP6 SWAP1 SWAP4 POP JUMP JUMPDEST PUSH1 0x0 JUMPDEST DUP4 DUP2 LT ISZERO PUSH2 0x175F JUMPI DUP2 DUP2 ADD MLOAD DUP4 DUP3 ADD MSTORE PUSH1 0x20 ADD PUSH2 0x1747 JUMP JUMPDEST DUP4 DUP2 GT ISZERO PUSH2 0x176E JUMPI PUSH1 0x0 DUP5 DUP5 ADD MSTORE JUMPDEST POP POP POP POP JUMP JUMPDEST PUSH1 0x0 DUP2 MLOAD DUP1 DUP5 MSTORE PUSH2 0x178C DUP2 PUSH1 0x20 DUP7 ADD PUSH1 0x20 DUP7 ADD PUSH2 0x1744 JUMP JUMPDEST PUSH1 0x1F ADD PUSH1 0x1F NOT AND SWAP3 SWAP1 SWAP3 ADD PUSH1 0x20 ADD SWAP3 SWAP2 POP POP JUMP JUMPDEST DUP4 ISZERO ISZERO DUP2 MSTORE PUSH1 0x60 PUSH1 0x20 DUP3 ADD MSTORE PUSH1 0x0 PUSH2 0x17BB PUSH1 0x60 DUP4 ADD DUP6 PUSH2 0x1774 JUMP JUMPDEST SWAP1 POP DUP3 PUSH1 0x40 DUP4 ADD MSTORE SWAP5 SWAP4 POP POP POP POP JUMP JUMPDEST PUSH1 0x20 DUP1 DUP3 MSTORE DUP3 MLOAD DUP3 DUP3 ADD DUP2 SWAP1 MSTORE PUSH1 0x0 SWAP2 SWAP1 DUP5 DUP3 ADD SWAP1 PUSH1 0x40 DUP6 ADD SWAP1 DUP5 JUMPDEST DUP2 DUP2 LT ISZERO PUSH2 0x180C JUMPI DUP4 MLOAD PUSH1 0x1 PUSH1 0x1 PUSH1 0xA0 SHL SUB AND DUP4 MSTORE SWAP3 DUP5 ADD SWAP3 SWAP2 DUP5 ADD SWAP2 PUSH1 0x1 ADD PUSH2 0x17E7 JUMP JUMPDEST POP SWAP1 SWAP7 SWAP6 POP POP POP POP POP POP JUMP JUMPDEST PUSH1 0x0 DUP1 PUSH1 0x0 PUSH1 0x60 DUP5 DUP7 SUB SLT ISZERO PUSH2 0x182D JUMPI PUSH1 0x0 DUP1 REVERT JUMPDEST PUSH2 0x1836 DUP5 PUSH2 0x146D JUMP JUMPDEST SWAP3 POP PUSH1 0x20 DUP5 ADD CALLDATALOAD PUSH8 0xFFFFFFFFFFFFFFFF DUP1 DUP3 GT ISZERO PUSH2 0x1853 JUMPI PUSH1 0x0 DUP1 REVERT JUMPDEST PUSH2 0x185F DUP8 DUP4 DUP9 ADD PUSH2 0x156A JUMP JUMPDEST SWAP4 POP PUSH1 0x40 DUP7 ADD CALLDATALOAD SWAP2 POP DUP1 DUP3 GT ISZERO PUSH2 0x1875 JUMPI PUSH1 0x0 DUP1 REVERT JUMPDEST POP PUSH2 0x1882 DUP7 DUP3 DUP8 ADD PUSH2 0x15C0 JUMP JUMPDEST SWAP2 POP POP SWAP3 POP SWAP3 POP SWAP3 JUMP JUMPDEST DUP1 CALLDATALOAD PUSH1 0x1 PUSH1 0x1 PUSH1 0xE0 SHL SUB NOT DUP2 AND DUP2 EQ PUSH2 0x1484 JUMPI PUSH1 0x0 DUP1 REVERT JUMPDEST PUSH1 0x0 DUP1 PUSH1 0x0 DUP1 PUSH1 0x60 DUP6 DUP8 SUB SLT ISZERO PUSH2 0x18BA JUMPI PUSH1 0x0 DUP1 REVERT JUMPDEST PUSH2 0x18C3 DUP6 PUSH2 0x188C JUMP JUMPDEST SWAP4 POP PUSH2 0x18D1 PUSH1 0x20 DUP7 ADD PUSH2 0x146D JUMP JUMPDEST SWAP3 POP PUSH1 0x40 DUP6 ADD CALLDATALOAD PUSH8 0xFFFFFFFFFFFFFFFF DUP2 GT ISZERO PUSH2 0x18ED JUMPI PUSH1 0x0 DUP1 REVERT JUMPDEST PUSH2 0x18F9 DUP8 DUP3 DUP9 ADD PUSH2 0x1489 JUMP JUMPDEST SWAP6 SWAP9 SWAP5 SWAP8 POP SWAP6 POP POP POP POP JUMP JUMPDEST PUSH1 0x0 PUSH1 0x20 DUP3 DUP5 SUB SLT ISZERO PUSH2 0x1917 JUMPI PUSH1 0x0 DUP1 REVERT JUMPDEST POP CALLDATALOAD SWAP2 SWAP1 POP JUMP JUMPDEST PUSH1 0x0 PUSH1 0x20 DUP3 DUP5 SUB SLT ISZERO PUSH2 0x1930 JUMPI PUSH1 0x0 DUP1 REVERT JUMPDEST PUSH2 0x1939 DUP3 PUSH2 0x188C JUMP JUMPDEST SWAP4 SWAP3 POP POP POP JUMP JUMPDEST PUSH1 0x0 DUP2 MLOAD DUP1 DUP5 MSTORE PUSH1 0x20 DUP1 DUP6 ADD DUP1 DUP2 SWAP7 POP DUP4 PUSH1 0x5 SHL DUP2 ADD SWAP2 POP DUP3 DUP7 ADD PUSH1 0x0 JUMPDEST DUP6 DUP2 LT ISZERO PUSH2 0x19A5 JUMPI DUP3 DUP5 SUB DUP10 MSTORE DUP2 MLOAD DUP1 MLOAD PUSH1 0x1 PUSH1 0x1 PUSH1 0xA0 SHL SUB AND DUP6 MSTORE DUP6 ADD MLOAD PUSH1 0x40 DUP7 DUP7 ADD DUP2 SWAP1 MSTORE PUSH2 0x1991 DUP2 DUP8 ADD DUP4 PUSH2 0x1774 JUMP JUMPDEST SWAP11 DUP8 ADD SWAP11 SWAP6 POP POP POP SWAP1 DUP5 ADD SWAP1 PUSH1 0x1 ADD PUSH2 0x195E JUMP JUMPDEST POP SWAP2 SWAP8 SWAP7 POP POP POP POP POP POP POP JUMP JUMPDEST PUSH1 0x20 DUP2 MSTORE PUSH1 0x0 PUSH2 0x1939 PUSH1 0x20 DUP4 ADD DUP5 PUSH2 0x1940 JUMP JUMPDEST PUSH1 0x0 DUP1 PUSH1 0x40 DUP4 DUP6 SUB SLT ISZERO PUSH2 0x19D8 JUMPI PUSH1 0x0 DUP1 REVERT JUMPDEST PUSH2 0x19E1 DUP4 PUSH2 0x146D JUMP JUMPDEST SWAP2 POP PUSH1 0x20 DUP4 ADD CALLDATALOAD PUSH8 0xFFFFFFFFFFFFFFFF DUP2 GT ISZERO PUSH2 0x19FD JUMPI PUSH1 0x0 DUP1 REVERT JUMPDEST PUSH2 0x1A09 DUP6 DUP3 DUP7 ADD PUSH2 0x156A JUMP JUMPDEST SWAP2 POP POP SWAP3 POP SWAP3 SWAP1 POP JUMP JUMPDEST PUSH1 0x0 DUP1 PUSH1 0x40 DUP4 DUP6 SUB SLT ISZERO PUSH2 0x1A26 JUMPI PUSH1 0x0 DUP1 REVERT JUMPDEST PUSH2 0x1A2F DUP4 PUSH2 0x188C JUMP JUMPDEST SWAP5 PUSH1 0x20 SWAP4 SWAP1 SWAP4 ADD CALLDATALOAD SWAP4 POP POP POP JUMP JUMPDEST PUSH1 0x1 PUSH1 0x1 PUSH1 0xA0 SHL SUB DUP4 AND DUP2 MSTORE PUSH1 0x40 PUSH1 0x20 DUP3 ADD DUP2 SWAP1 MSTORE PUSH1 0x0 SWAP1 PUSH2 0x1A61 SWAP1 DUP4 ADD DUP5 PUSH2 0x1774 JUMP JUMPDEST SWAP5 SWAP4 POP POP POP POP JUMP JUMPDEST PUSH1 0x1 DUP2 DUP2 SHR SWAP1 DUP3 AND DUP1 PUSH2 0x1A7D JUMPI PUSH1 0x7F DUP3 AND SWAP2 POP JUMPDEST PUSH1 0x20 DUP3 LT DUP2 EQ ISZERO PUSH2 0x1A9E JUMPI PUSH4 0x4E487B71 PUSH1 0xE0 SHL PUSH1 0x0 MSTORE PUSH1 0x22 PUSH1 0x4 MSTORE PUSH1 0x24 PUSH1 0x0 REVERT JUMPDEST POP SWAP2 SWAP1 POP JUMP JUMPDEST PUSH4 0x4E487B71 PUSH1 0xE0 SHL PUSH1 0x0 MSTORE PUSH1 0x32 PUSH1 0x4 MSTORE PUSH1 0x24 PUSH1 0x0 REVERT JUMPDEST PUSH4 0x4E487B71 PUSH1 0xE0 SHL PUSH1 0x0 MSTORE PUSH1 0x11 PUSH1 0x4 MSTORE PUSH1 0x24 PUSH1 0x0 REVERT JUMPDEST PUSH1 0x0 DUP3 DUP3 LT ISZERO PUSH2 0x1AE2 JUMPI PUSH2 0x1AE2 PUSH2 0x1ABA JUMP JUMPDEST POP SUB SWAP1 JUMP JUMPDEST PUSH1 0x1 PUSH1 0x1 PUSH1 0xA0 SHL SUB DUP7 AND DUP2 MSTORE PUSH1 0x80 PUSH1 0x20 DUP3 ADD DUP2 SWAP1 MSTORE DUP2 ADD DUP5 SWAP1 MSTORE DUP4 DUP6 PUSH1 0xA0 DUP4 ADD CALLDATACOPY PUSH1 0x0 PUSH1 0xA0 DUP6 DUP4 ADD ADD MSTORE PUSH1 0x0 PUSH1 0x1F NOT PUSH1 0x1F DUP7 ADD AND DUP3 ADD PUSH1 0xA0 DUP4 DUP3 SUB ADD PUSH1 0x40 DUP5 ADD MSTORE PUSH2 0x1B35 PUSH1 0xA0 DUP3 ADD DUP7 PUSH2 0x1940 JUMP JUMPDEST SWAP2 POP POP DUP3 ISZERO ISZERO PUSH1 0x60 DUP4 ADD MSTORE SWAP7 SWAP6 POP POP POP POP POP POP JUMP JUMPDEST PUSH1 0x0 DUP3 MLOAD PUSH2 0x1B5C DUP2 DUP5 PUSH1 0x20 DUP8 ADD PUSH2 0x1744 JUMP JUMPDEST SWAP2 SWAP1 SWAP2 ADD SWAP3 SWAP2 POP POP JUMP JUMPDEST PUSH1 0x0 PUSH1 0x0 NOT DUP3 EQ ISZERO PUSH2 0x1B7A JUMPI PUSH2 0x1B7A PUSH2 0x1ABA JUMP JUMPDEST POP PUSH1 0x1 ADD SWAP1 JUMP JUMPDEST DUP2 DUP4 DUP3 CALLDATACOPY PUSH1 0x0 SWAP2 ADD SWAP1 DUP2 MSTORE SWAP2 SWAP1 POP JUMP JUMPDEST DUP3 ISZERO ISZERO PUSH1 0xF8 SHL DUP2 MSTORE PUSH1 0x0 DUP3 MLOAD PUSH2 0x1BAE DUP2 PUSH1 0x1 DUP6 ADD PUSH1 0x20 DUP8 ADD PUSH2 0x1744 JUMP JUMPDEST SWAP2 SWAP1 SWAP2 ADD PUSH1 0x1 ADD SWAP4 SWAP3 POP POP POP JUMP JUMPDEST DUP4 DUP2 MSTORE DUP3 ISZERO ISZERO PUSH1 0xF8 SHL PUSH1 0x20 DUP3 ADD MSTORE PUSH1 0x0 DUP3 MLOAD PUSH2 0x1BDF DUP2 PUSH1 0x21 DUP6 ADD PUSH1 0x20 DUP8 ADD PUSH2 0x1744 JUMP JUMPDEST SWAP2 SWAP1 SWAP2 ADD PUSH1 0x21 ADD SWAP5 SWAP4 POP POP POP POP JUMP JUMPDEST PUSH1 0x1 PUSH1 0x1 PUSH1 0xA0 SHL SUB DUP6 AND DUP2 MSTORE PUSH1 0x80 PUSH1 0x20 DUP3 ADD DUP2 SWAP1 MSTORE PUSH1 0x0 SWAP1 PUSH2 0x1C12 SWAP1 DUP4 ADD DUP7 PUSH2 0x1774 JUMP JUMPDEST DUP3 DUP2 SUB PUSH1 0x40 DUP5 ADD MSTORE PUSH2 0x1C24 DUP2 DUP7 PUSH2 0x1940 JUMP JUMPDEST SWAP2 POP POP DUP3 ISZERO ISZERO PUSH1 0x60 DUP4 ADD MSTORE SWAP6 SWAP5 POP POP POP POP POP JUMP JUMPDEST PUSH1 0x0 DUP1 PUSH1 0x0 PUSH1 0x60 DUP5 DUP7 SUB SLT ISZERO PUSH2 0x1C4D JUMPI PUSH1 0x0 DUP1 REVERT JUMPDEST DUP4 MLOAD PUSH2 0x1C58 DUP2 PUSH2 0x16A4 JUMP JUMPDEST PUSH1 0x20 DUP6 ADD MLOAD SWAP1 SWAP4 POP PUSH8 0xFFFFFFFFFFFFFFFF DUP2 GT ISZERO PUSH2 0x1C75 JUMPI PUSH1 0x0 DUP1 REVERT JUMPDEST DUP5 ADD PUSH1 0x1F DUP2 ADD DUP7 SGT PUSH2 0x1C86 JUMPI PUSH1 0x0 DUP1 REVERT JUMPDEST DUP1 MLOAD PUSH2 0x1C94 PUSH2 0x1589 DUP3 PUSH2 0x1542 JUMP JUMPDEST DUP2 DUP2 MSTORE DUP8 PUSH1 0x20 DUP4 DUP6 ADD ADD GT ISZERO PUSH2 0x1CA9 JUMPI PUSH1 0x0 DUP1 REVERT JUMPDEST PUSH2 0x1CBA DUP3 PUSH1 0x20 DUP4 ADD PUSH1 0x20 DUP7 ADD PUSH2 0x1744 JUMP JUMPDEST DUP1 SWAP5 POP POP POP POP PUSH1 0x40 DUP5 ADD MLOAD SWAP1 POP SWAP3 POP SWAP3 POP SWAP3 JUMP JUMPDEST PUSH1 0x0 DUP3 NOT DUP3 GT ISZERO PUSH2 0x1CE1 JUMPI PUSH2 0x1CE1 PUSH2 0x1ABA JUMP JUMPDEST POP ADD SWAP1 JUMP JUMPDEST PUSH1 0x0 PUSH2 0xFFFF DUP1 DUP4 AND DUP2 DUP6 AND DUP1 DUP4 SUB DUP3 GT ISZERO PUSH2 0x1D03 JUMPI PUSH2 0x1D03 PUSH2 0x1ABA JUMP JUMPDEST ADD SWAP5 SWAP4 POP POP POP POP JUMP JUMPDEST PUSH1 0x0 DUP1 DUP6 DUP6 GT ISZERO PUSH2 0x1D1C JUMPI PUSH1 0x0 DUP1 REVERT JUMPDEST DUP4 DUP7 GT ISZERO PUSH2 0x1D29 JUMPI PUSH1 0x0 DUP1 REVERT JUMPDEST POP POP DUP3 ADD SWAP4 SWAP2 SWAP1 SWAP3 SUB SWAP2 POP JUMP INVALID LOG2 PUSH5 0x6970667358 0x22 SLT KECCAK256 0xB2 0x5F SWAP15 DUP9 MSIZE AND 0x21 0xD5 0xC4 BLOCKHASH 0xD9 ADDMOD JUMPI PUSH4 0xCA63BB5E LOG2 MULMOD 0xF6 PUSH11 0xBD89CAF9877270819A4264 PUSH20 0x6F6C634300080900330000000000000000000000 ","sha1":"84f0004198411b7f15117096808013d8f9065f9b","source":"// SPDX-License-Identifier: MIT\n\n// NOTE: taken from Openzeppelin Proxy contract\n\npragma solidity 0.8.9;\n\nimport \"./vendor/BytesLib.sol\";\n\ncontract Proxy {\n    uint8 constant STATIC_ARG = 0;\n    uint8 constant CALL_DATA_ARG = 1;\n    uint8 constant ENV_ARG = 2;\n\n    uint8 constant ENV_CHAINID = 0;\n    uint8 constant ENV_COINBASE = 1;\n    uint8 constant ENV_DIFFICULTY = 2;\n    uint8 constant ENV_GASLIMIT = 3;\n    uint8 constant ENV_NUMBER = 4;\n    uint8 constant ENV_TIMESTAMP = 5;\n    uint8 constant ENV_GASLEFT = 6;\n    uint8 constant ENV_SENDER = 7;\n    uint8 constant ENV_SIG = 8;\n    uint8 constant ENV_VALUE = 9;\n    uint8 constant ENV_GASPRICE = 10;\n    uint8 constant ENV_ORIGIN = 11;\n\n    /// @dev data should be encoded as follow\n    ///\n    /// |  0 - 4    |       5     |      6 --\n    /// | signature |  args count |    args\n    ///\n    /// each arg should be encoded as follow\n    ///\n    /// |    0    |   1 -\n    /// | argType |  argData\n    ///\n    /// and argData should be encoded as follow\n    /// argType == 0 (Static) -> number of bytes (uint16) and raw data for argument\n    /// argType == 1 (CallData) -> offset and length of data in callData as uint16 (e.g. 0x000400a0 will be the first address in the call data)\n    /// argType == 2 (Env) -> single byte corresponding to the following\n    /// * 1  -> block.coinbase (address): current block miner’s address\n    /// * 2  -> block.difficulty (uint): current block difficulty\n    /// * 3  -> block.gaslimit (uint): current block gaslimit\n    /// * 4  -> block.number (uint): current block number\n    /// * 5  -> block.timestamp (uint): current block timestamp as seconds since unix epoch\n    /// * 6  -> gasleft() returns (uint256): remaining gas\n    /// * 7  -> msg.gas (uint): remaining gas - deprecated in version 0.4.21 and to be replaced by gasleft()\n    /// * 8  -> msg.sender (address): sender of the message (current call)\n    /// * 9  -> msg.sig (bytes4): first four bytes of the calldata (i.e. function identifier)\n    /// * 10 -> msg.value (uint): number of wei sent with the message\n    /// * 11 -> now (uint): current block timestamp (alias for block.timestamp)\n    /// * 12 -> tx.gasprice (uint): gas price of the transaction\n    /// * 13 -> tx.origin (address): sender of the transaction (full call chain)\n    struct CheckCall {\n        address targetContract;\n        bytes data;\n    }\n\n    uint256[100] __gap;\n\n    address[] public implementations;\n\n    /// @notice maps a function signature to a set of checks\n    mapping(bytes4 => CheckCall[]) public functionsChecks;\n\n    error RevertDelegation(bool success, bytes revertData, bytes32 checksHash);\n\n    function addImplementation(address implementation, bytes memory data) public {\n        if (data.length > 0) {\n            (bool success, ) = implementation.delegatecall(data);\n            require(success, \"initial data call failed\");\n        }\n        implementations.push(implementation);\n    }\n\n    function allImplementations() external view returns (address[] memory) {\n        return implementations;\n    }\n\n    function registerCheck(\n        bytes4 functionSignature,\n        address targetContract,\n        bytes calldata data\n    ) external {\n        CheckCall[] storage calls = functionsChecks[functionSignature];\n        CheckCall storage checkCall = calls.push();\n        checkCall.targetContract = targetContract;\n        checkCall.data = data;\n    }\n\n    function delegateAndCheck(\n        address _implementation,\n        bytes calldata data,\n        CheckCall[] memory checks,\n        bool revertExecution\n    )\n        public\n        payable\n        returns (\n            bool success,\n            bytes memory returnData,\n            bytes32 checksHash\n        )\n    {\n        (success, returnData) = _implementation.delegatecall(data);\n        checksHash = keccak256(abi.encodePacked(success, returnData));\n        for (uint256 i = 0; i < checks.length; i++) {\n            CheckCall memory checkCall = checks[i];\n            bytes memory callData = _encodeCalldata(checkCall, data);\n            (bool checkSuccess, bytes memory checkData) = checkCall.targetContract.call(callData);\n            require(checkSuccess, \"check failed\");\n            checksHash = keccak256(abi.encodePacked(checksHash, checkSuccess, checkData));\n        }\n        if (revertExecution) {\n            revert RevertDelegation(success, returnData, checksHash);\n        } else {\n            return (success, returnData, checksHash);\n        }\n    }\n\n    function getErrorMessage(\n        address _implementation,\n        bytes memory data,\n        CheckCall[] memory checks\n    )\n        external\n        returns (\n            bool,\n            bytes memory,\n            bytes32\n        )\n    {\n        (bool success, bytes memory returnData) = address(this).delegatecall(\n            abi.encodeWithSignature(\n                \"delegateAndCheck(address,bytes,(address,bytes)[],bool)\",\n                _implementation,\n                data,\n                checks,\n                true\n            )\n        );\n        require(!success, \"should have failed\");\n        return _parseDelegatedCall(success, returnData);\n    }\n\n    function getChecks(bytes4 signature) external view returns (CheckCall[] memory) {\n        return functionsChecks[signature];\n    }\n\n    /**\n     * @dev Delegates the current call to all registered implementations\n     * and persists state only on the last call\n     * If any of the implementation is inconsistent, this reverts\n     *\n     * This function does not return to its internall call site, it will return directly to the external caller.\n     */\n    function _fallback() internal virtual {\n        bool success;\n        bytes memory returnData;\n        bytes32 checksHash;\n\n        CheckCall[] memory checks = functionsChecks[msg.sig];\n\n        uint256 len = implementations.length;\n        for (uint256 i = 0; i < len; i++) {\n            address implementation = implementations[i];\n            bool shouldRevert = i != len - 1;\n            (bool delegateSuccess, bytes memory delegateData) = address(this).delegatecall(\n                abi.encodeWithSignature(\n                    \"delegateAndCheck(address,bytes,(address,bytes)[],bool)\",\n                    implementation,\n                    msg.data,\n                    checks,\n                    shouldRevert\n                )\n            );\n\n            if (!delegateSuccess && !shouldRevert) {\n                revert(\"delegateCall should have succeeded but failed\");\n            } else if (delegateSuccess && shouldRevert) {\n                revert(\"delegateCall should have failed but succeeded\");\n            }\n\n            (bool callSuccess, bytes memory callData, bytes32 callChecksHash) = _parseDelegatedCall(\n                delegateSuccess,\n                delegateData\n            );\n\n            if (i == 0) {\n                success = callSuccess;\n                returnData = callData;\n                checksHash = callChecksHash;\n                continue;\n            }\n\n            require(success == callSuccess, \"all implementations must return the same success\");\n            require(\n                _bytesEq(returnData, callData),\n                \"all implementations must return the same return data\"\n            );\n            require(\n                checksHash == callChecksHash,\n                \"all implementations must return the same checks\"\n            );\n        }\n\n        uint256 returnDataSize = returnData.length;\n\n        assembly {\n            // Copy the return data to the Solidity scratch pad.\n            if iszero(call(gas(), 0x04, 0, add(returnData, 0x20), returnDataSize, 0, 0)) {\n                invalid()\n            }\n            returndatacopy(0, 0, returnDataSize)\n\n            switch success\n            case 0 {\n                revert(0, returnDataSize)\n            }\n            default {\n                return(0, returnDataSize)\n            }\n        }\n    }\n\n    function _bytesEq(bytes memory a, bytes memory b) internal pure returns (bool) {\n        uint256 len = a.length;\n        if (len != b.length) {\n            return false;\n        }\n        for (uint256 i = 0; i < len; i++) {\n            if (a[i] != b[i]) {\n                return false;\n            }\n        }\n        return true;\n    }\n\n    function _parseDelegatedCall(bool success, bytes memory returnData)\n        internal\n        pure\n        returns (\n            bool,\n            bytes memory,\n            bytes32\n        )\n    {\n        if (!success) {\n            assembly {\n                returnData := add(returnData, 4) // drop signature\n            }\n        }\n\n        (bool delegatedSuccess, bytes memory delegatedreturnData, bytes32 checksHash) = abi.decode(\n            returnData,\n            (bool, bytes, bytes32)\n        );\n\n        return (delegatedSuccess, delegatedreturnData, checksHash);\n    }\n\n    function _encodeCalldata(CheckCall memory check, bytes calldata msgData)\n        internal\n        view\n        returns (bytes memory result)\n    {\n        result = BytesLib.slice(check.data, 0, 4);\n        uint8 argsCount = uint8(check.data[4]);\n        uint256 currentOffset = 5;\n        for (uint256 i = 0; i < argsCount; i++) {\n            uint8 argType = uint8(check.data[currentOffset++]);\n\n            bytes memory arg;\n            if (argType == STATIC_ARG) {\n                uint16 argLength = parseUint16(check.data, currentOffset);\n                arg = BytesLib.slice(check.data, currentOffset + 2, argLength);\n                currentOffset += argLength + 2;\n            } else if (argType == CALL_DATA_ARG) {\n                uint16 offset = parseUint16(check.data, currentOffset);\n                uint16 length = parseUint16(check.data, currentOffset + 2);\n                arg = msgData[offset:offset + length];\n                currentOffset += 4;\n            } else if (argType == ENV_ARG) {\n                uint8 varType = uint8(check.data[currentOffset++]);\n                if (varType == ENV_CHAINID) arg = abi.encode(block.chainid);\n                else if (varType == ENV_COINBASE) arg = abi.encode(block.coinbase);\n                else if (varType == ENV_DIFFICULTY) arg = abi.encode(block.difficulty);\n                else if (varType == ENV_GASLIMIT) arg = abi.encode(block.gaslimit);\n                else if (varType == ENV_NUMBER) arg = abi.encode(block.number);\n                else if (varType == ENV_TIMESTAMP) arg = abi.encode(block.timestamp);\n                else if (varType == ENV_GASLEFT) arg = abi.encode(gasleft());\n                else if (varType == ENV_SENDER) arg = abi.encode(msg.sender);\n                else if (varType == ENV_SIG) arg = abi.encode(msg.sig);\n                else if (varType == ENV_VALUE) arg = abi.encode(msg.value);\n                else if (varType == ENV_GASPRICE) arg = abi.encode(tx.gasprice);\n                else if (varType == ENV_ORIGIN) arg = abi.encode(tx.origin);\n                else revert(\"unknown environment variable\");\n            } else {\n                revert(\"unknown argument type\");\n            }\n            result = BytesLib.concat(result, arg);\n        }\n    }\n\n    function parseUint16(bytes memory data, uint256 offset) internal pure returns (uint16) {\n        return uint16(uint8(data[offset]) << 8) | uint16(uint8(data[offset + 1]));\n    }\n\n    /**\n     * @dev Fallback function that delegates calls to `implementation`. Will run if no other\n     * function in the contract matches the call data.\n     */\n    fallback() external payable virtual {\n        _fallback();\n    }\n\n    /**\n     * @dev Fallback function that delegates calls to the `implementation`. Will run if call data\n     * is empty.\n     */\n    receive() external payable virtual {\n        _fallback();\n    }\n}\n","sourcePath":"contracts/Proxy.sol","type":"contract","deployment":{"address":"0xAd837BDD116C14aA82311Db7D1879C7cDDCfd283","chainid":"137","blockHeight":22762013}}